:1000000008308A0000280000FF00030E8301A100D1
:100010000A08A0008A010408A2007708A300780853
:10002000A4007908A5007A08A600831383128C30F7
:100030008400801E1D288C1A38288C308400001CF7
:1000400023280C183B288B1E27280B193E28220832
:1000500084002308F7002408F8002508F900260882
:10006000FA0020088A00210E8300FF0E7F0E09008F
:100070008A110A12EF288A110A1219298A110A1202
:100080008A290A108A100A11820728340C34013494
:1000900006340A108A100A118207003400344534ED
:1000A0005434493441344E344D345334553452343D
:1000B000573444344B3447344F3448345634463440
:1000C00000344C34003450344A34423458344334CD
:1000D00059345A3451340034003435343434003413
:1000E000333400340034003432340034003400340B
:1000F00000340034003400343134363400340034F9
:100100000034003400340034003437340034003418
:10011000003438340034393430340A108A100A116B
:100120008207543441344E3449344D3453344934C5
:100130005A3420344B344F344D3455345434003415
:100140000A108A100A11820746344F3452344D3453
:1001500041345434203448344134543441345334D9
:1001600049340034201020102010201020102010BE
:1001700020102010201020100000CD27441DA026A4
:10018000C52941252010201020102010201000012A
:10019000CD27441DA025CF26552A20102010201041
:1001A000201020100001201000012010201020102D
:1001B00020102010201020102010201020100000EF
:1001C000C822D0294910D324CC24CE24D9275200C8
:1001D000D52CCB2AA0264F2255172E1700008C1E97
:1001E00015298C1EF1281A080317B8003808243C7A
:1001F0000319F60138080A3C0319022938080D3C96
:10020000031D09294E3076078400831380017B1477
:1002100014297608253C031C14294E3076078400E7
:10022000831338088000F60A03138C128A110A120D
:1002300027288E01F6308F003C308E0083163A0856
:100240007C3C031C2629B90A0319BA0A0614831236
:100250000317381003130618302903173814031333
:100260000317381C432983160313BA01B901FC0A8A
:100270000319FD0A051083120514831685108312D5
:1002800085148129031783160313051083120510A3
:100290008316851083128510FB1C81298316BA01F1
:1002A000B901FD08031D58297C08023C03187E296A
:1002B000FD08031D69297C081D3C031C6929831264
:1002C0004C08CC0A2D3E840083132E308000712907
:1002D000831683124C08CC0A2D3E840083132D30E4
:1002E00080004C08093C031877290930CC002D30D8
:1002F0004C078400831380017B158316FD01FC01EC
:100300008312FB1003173818FB1403130C108A1107
:100310000A122728FE0A7E083C3C03189129FE0198
:10032000FB150B118A110A122728CD37F239202A22
:100330006536673961330001D622D224A0234F27C6
:10034000C422D2244C2249002E3084008317000896
:100350000319B7290230F800F701F70BAD29F80BA4
:10036000AC299730F700F70BB329800BAA290800B6
:1003700003173518BF2903130812C12903170313E4
:1003800008168316081283120317B518CB29031316
:100390008812CD2903170313881683168812831237
:1003A00003173519D72903130813D9290317031382
:1003B00008178316081383120317B519E3290313CB
:1003C0008813E52903170313881783168813000081
:1003D0008312881583168811ED29EE29831288115E
:1003E00083168811831208000317B60183160313BE
:1003F000081600308312081A01300317B60483165A
:100400000313881600308312881A0130F700031096
:10041000F70D77080317B604831603130817003087
:100420008312081B0130F700F70DF70DFC30F705BC
:1004300077080317B6048316031388170030831256
:10044000881B0130F700F70DF70DF70DF830F705B1
:1004500077080317B6043608F8000313080083165C
:1004600088118810081183128810831688100816C6
:1004700088160817881783120815831608110000BC
:10048000831288158316881100008312F4217808DE
:100490000317B50003138811831688110000831217
:1004A000881583168811542A8312F42178080317BB
:1004B000B4000313881183168811081288120813D8
:1004C000881383120317350EF700F030F70577080D
:1004D0003404F8007808B400B41F712A831603139B
:1004E000372AB208031D782A031388107A2A0317C3
:1004F00003138814831688100000831208118316D2
:1005000008110000831288118316881183120317C3
:10051000330EB4000F30B4053408B5000313B8210E
:10052000031733080F39B400B5000313B8210800CE
:10053000831608128812081388138811881008116E
:1005400083128810831688108312081183160811ED
:1005500083128811831688110F3083120317AE009F
:100560000313A42101308316C1004108033C031C7E
:10057000C72A033083120317B5000313B8210530CF
:100580000317AE000313A4218316C10AB52A023053
:1005900083120317B5000313B82105300317AE000B
:1005A0000313A4218316C1014108033C031CEB2A59
:1005B0004108831241208316C20083120317B2013F
:1005C00083160313420883120317B30003132F2269
:1005D0008316C10AD42A8312080003178D018316DB
:1005E0008C130C1483120C080313CD004D08143C1B
:1005F000031CCD018316C10183124D0883164102ED
:100600000318182B3730410784008313013041074A
:10061000C4004408831203178D0083168C130C1436
:1006200083120C088000640083160313C10AFC2A9D
:10063000373083124D078400831380018A150A1214
:100640005B28323003178D0083168C130C14831231
:100650000C0883160313C2004208143C031CC20199
:10066000C1014208410203184B2BA030410784000E
:10067000831333304107C5004508831203178D00EB
:1006800083168C130C1483120C08800064008316EC
:100690000313C10A312BA030420784008313800169
:1006A00083128A150A125E2803172A08013A0313D7
:1006B0000319642B033A0319672B013A03196B2BB7
:1006C000073A03196F2B742B0317AB01762B4030BD
:1006D0000317AB00762B14300317AB00762B543086
:1006E0000317AB00762B03130317AB01013029026C
:1006F000AB072B088038AC00B2012C08B300031301
:100700002F22080003172F0B862B892B4030B000B7
:100710008A2BB00101302E02B00730088038B100BA
:10072000B2013108B30003132F22080003172D086C
:10073000073A03130319A62B0B3A0319AD2B063AFC
:100740000319B92B023A0319C12BC82B0130031727
:10075000AE00AF0003138223CF2B0317B201013089
:10076000B30003132F2202300317AE000313A4219A
:10077000CF2B01300317AE000230AF0003138223EA
:10078000CF2B0317B2011030B30003132F22CF2B4E
:1007900001300317B2002D08B30003132F22080005
:1007A0000B080317A90003138B13831603178C1769
:1007B0000C140000000083120C087F3903190D2C63
:1007C000AA000D08AB000F08AC002A08AD00031307
:1007D000962303172B088D002C088F0083168C1787
:1007E0000C140000000083120C0D0E0D7F3903194C
:1007F0000D2CAA000D08AB000F08AC002A08AD00B4
:100800000313962303172B088D002C088F008D0AE5
:1008100003198F0A0313D52B0317A91F122C0313D7
:100820008B1703170313080080080319302C0317D4
:10083000AA010408A9002A10831B2A140008AD008D
:100840000313962303172908840083132A18831798
:10085000840A031D2E2C0313850A03170313142C7B
:10086000080003172F08B1002E08B0003108FA0065
:100870003008840083137A18831780080319442CE6
:10088000B00A0319B10A362C2E083002F7003108DD
:10089000FA002F08031C2F0FFA027708F800031341
:1008A000080001300317AD002A08AF002908AE0088
:1008B0000313312478080317AC00AC08031D632C24
:1008C0002030F8008F2CAB012C082B0203187D2C54
:1008D0000310AD0D2B082907840083132A188317F2
:1008E00000082D3C03192D142D083F3C03187B2CC8
:1008F0003F30F8008F2CAB0A642C2D0803134920DD
:10090000003A031D882C3F30F80003178F2C031387
:1009100003172D0803134920F800F80003170313E9
:10092000080001300317A900AA00031354237B1AFF
:10093000A12CBD3003178D0000308F000313D0238E
:10094000A82CC83003178D0000308F000313D0236C
:1009500001300317A9000230AA00031354233730D3
:10096000840083131424CC080319C92C0317AA018B
:100970002D30A9000313512478080317A800280874
:10098000AD00031396233C300317AD0003139623E9
:10099000D02CD33003178D0000308F000313D023E9
:1009A0000317AF013730AE00031331247808031763
:1009B000A9000313CC080319E02CFA010230E22C41
:1009C000FA01003003172907A7002708A600260808
:1009D000133C031CF22C2030AD00031396230317A5
:1009E000A60AE72C0130A9000330AA000313542300
:1009F0002D308400831314240317AF012D30AE0073
:100A00000313312478080317A7002708A600260837
:100A1000133C031C122D2030AD0003139623031743
:100A2000A60A072D83160313A008031D272D0130E6
:100A300083120317A9000430AA0003135423D530EE
:100A400003178D0000308F000313D0238316831209
:100A5000080004308316C400A008031D402D013097
:100A600083120317A9000430AA0003135423B230E1
:100A700003178D0000308F000313D023932D8316AE
:100A800083120317AF01A030AE000313312478089E
:100A90008316C100013083120317A9000430AA0095
:100AA000031354238316C2014208133C031C922DE6
:100AB00042083B07C50044084107C6004508C70077
:100AC0004608C8004808F801470203186A2D47087D
:100AD000F700762DF7010830C900C70DF70D48085B
:100AE00077020318F700F80DC90B6D2D7708C300C6
:100AF000410843020318892DA03043078400831363
:100B00000008C50083120317AD00031396238F2D31
:100B10008316203083120317AD0003139623831628
:100B2000C20A542D83128A150A12BE2803172708F9
:100B3000FA002608840083137A1883172808000215
:100B40000319B42D2708FA002608840083137A18A5
:100B500083178008031DB02D0030F800F900B82D70
:100B6000A60A0319A70A972D2608F8002708F900F6
:100B70000313080003172708FA00260884008313CC
:100B80007A1883170008AA002908FA0028088400A8
:100B900083137A18831700082A02031DE62D2708FD
:100BA000FA002608840083137A1883178008031D2F
:100BB000DC2D0030F800FE2D2708FA002608A60AD2
:100BC0000319A70AA80A0319A90ABB2D2708FA00C6
:100BD000260884008313271883170008AA00290811
:100BE000FA002808840083132918831700082A02B2
:100BF0000318FC2DFF30FD2D0130F8000313080011
:100C00000317A901A80129082702031C172E031D99
:100C10000D2E260828020318172E0130AE000313EC
:100C2000A42164000317A80A0319A90A032E0313B9
:100C300008000C300317AD0003139623013003178F
:100C4000A900AA0003135423E03003178D000030DD
:100C50008F000313D023831685108312851401306F
:100C60000317A700F430A60003130026831685108F
:100C7000831285100B08F7008B1303178D018C016D
:100C800083168C130C1555308D00AA308D008C14F2
:100C90008C18482E0C117708831203138B040B0851
:100CA000F7008B13323003178D008C0183168C13E1
:100CB0000C1555308D00AA308D008C148C185E2ECA
:100CC0000C117708831203138B04CD01B701CC01FB
:100CD000AD018316A001BB010C3083120317AD00D8
:100CE00003139623912408000317AF01A030AE0030
:100CF0000313312478088316C20083120B08F7000F
:100D00008B13323003178D008316031342088312AE
:100D100003178C0083168C130C1555308D00AA30E8
:100D20008D008C148C18922E0C11770883120313EB
:100D30008B048316C101420841020318CA2E3330C6
:100D40004107C300A0304107840083130008C4009A
:100D500083120B08F7008B138316430883120317C3
:100D60008D00831603134408831203178C00831627
:100D70008C130C1555308D00AA308D008C148C18F6
:100D8000BF2E0C117708831203138B0464008316A3
:100D9000C10A9B2E83128A150A12AB2A0C30031744
:100DA000AD000313962301300317A900AA00031313
:100DB0005423E83003178D0000308F000313D02335
:100DC00001300317A700F430A60003130026031711
:100DD000B2010830B30003132F22831605108312CB
:100DE0000510831685108312851064006300831636
:100DF00006148312061C102F831686148312861C79
:100E0000102F831606158312061D102F83168615C4
:100E10008312861D102F831606168312061A2E2F94
:100E200014300317AE000313A42183160614831293
:100E3000061C2D2F831686148312861C2D2F8316D5
:100E400006158312061D2D2F831686158312861D07
:100E50002D2F831606168312061E2F2FF52E98228D
:100E600091248316BA01B901831208008316C201C6
:100E70007B1A3D2F4D30C1003F2F4B30C100243035
:100E800083120C1E412F99008316410883120C1EF9
:100E9000472F99002C300C1E4B2F990083164108C8
:100EA0002C3AC20083120317AF013730AE00031390
:100EB000312478088316C400C30144084302031890
:100EC000792F37304307840083130008C5007B1E49
:100ED0006F2F4508203C031D6F2F2C30C50045089F
:100EE00083120C1E712F990083164508C206C30A8F
:100EF0005D2F2A3083120C1E7B2F99008316420827
:100F0000C6003730C700C71B982F0F30F700460EBA
:100F1000F7050A3077020318902F3030F707922F29
:100F20004708F707770883120C1E942F9900831641
:100F30000F30C6050A3046020318A02F3030A22F0A
:100F4000C7134708C607460883120C1EA52F990031
:100F50000D300C1EA92F99000A300C1EAD2F9900E0
:100F60008A150A12512B0B08F7008B1303178D01FA
:100F700003134D0803178C0083168C130C15553082
:100F80008D00AA308D008C148C18C42F0C1177089A
:100F9000831203138B048316C10183124D08831639
:100FA00041020318FE2F01304107C20037304107CC
:100FB000840083130008C30083120B08F7008B130F
:100FC00083164208831203178D0083160313430808
:100FD000831203178C0083168C130C1555308D006B
:100FE000AA308D008C148C18F32F0C117708831203
:100FF00003138B0464008316C10ACD2F83120800EB
:10100000713083168F000F08031787110C300313FC
:101010009900A2309800903083129800CC01CD0145
:10102000F6017B10FD01FC018316BA01B901FB102A
:101030007B11FE01FB11BB017B1203170908C039AC
:10104000890003131F129F120030031788008312B8
:1010500087018801890183131F3083050313A701CA
:10106000A801713083168F000F0883120317051033
:10107000FF3083160313860001309500811305109D
:10108000851085108312851432300317AE008A1143
:101090000313A4218A1583168510831285108A11E3
:1010A00098228A1564300317AE008A110313A42115
:1010B0008A158A11ED2A8A158A11212B8A15353055
:1010C00090008E01F6308F003C308E0083160108B0
:1010D000C039073881000C1483128B1683168C16C6
:1010E000C03083128B0401300317A900AA008A11B3
:1010F000031354238A15953003178D0001308F0098
:101100008A110313D0238A1504308316C100FA30E4
:1011100083120317AE008A110313A4218A158316C4
:10112000C10B87280C3083120317AD008A110313FB
:1011300096238A158A1191248A1509300317850090
:101140000F30F700031381018130840083130008FE
:10115000F0390738800064000008F739F719F039D2
:10116000770480006400FB1DBF28FB118316A008D4
:101170000319C028BB0A8A118312292D8A158316E8
:101180007B1CB32A6010FF30E2007230E300733042
:10119000E4007430E500E6016C30E7006530E800FB
:1011A0006430E9005F30EA007330EB006530EC003A
:1011B0007430ED00EE016230831203179000753039
:1011C00091007A309200930065309400723095005F
:1011D0005F30960073309700653098007430990046
:1011E0009A0168309B0061309C0072309D00643031
:1011F0009E005F309F007230A0006530A100733008
:10120000A2006530A3007430A400A50103134E08AA
:10121000243C031DA62A4F088316C6008312031719
:10122000A7014E30A6002C30A8008A110313962582
:101230008A1579088316C2007808C1008312031743
:10124000A7014E30A6002A30A8008A110313962564
:101250008A1579088316C4007808C300C108031DE5
:101260003429C20803198B2AC308031D3A29C4086C
:1012700003198B2A42084402031C8B2A031D4429AC
:101280004308410203188B2A41084302F70044082F
:10129000FA004208031C420FFA027708FF3EC5001D
:1012A0004508183C031856291830C500013041077D
:1012B00083120317A6008316031342088312031731
:1012C000A7000318A70AA901C730A8002708AB0088
:1012D0002608AA00AD0183160313450883120317DD
:1012E000AC002908AF002808AE00AC08031D7B291C
:1012F000AD080319A6292B08FA002A0884008313D5
:101300007A18831780080319A6292F08FA002E08D7
:10131000AE0A0319AF0AB0007A08B1002B08FA0030
:101320002A08AA0A0319AB0A840083137A188317C0
:101330000008B20030088400831331188317320884
:1013400080002C080319AD03AC037529AC08031DFC
:10135000AC29AD080319BC292F08FA002E08AE0AE3
:101360000319AF0A840083137A18831780012C08AD
:101370000319AD03AC03A6292808F8002908F900D1
:10138000C730831603134507840083138001460882
:101390004D3C031DEA2983120317A901C730A80099
:1013A000A701A030A60028088400831329188317FA
:1013B0000008AA00260884008313271883172A0828
:1013C000800080080319E729A60AA80AD329882AD9
:1013D0008316031346084B3C031D8A2AE101450886
:1013E00061020318002AC7306107840083130008D4
:1013F0002C3C031DFE296108E200002AE10AEF29C6
:10140000620F032A112AC730620784008313800108
:1014100001306207C73E840083130008313C031982
:10142000601483120317A701C730A600A901E33097
:10143000A8008A110313BA258A15F808031D232A68
:101440008A010028892A0317A701C730A600A9012D
:10145000E730A8008A110313BA258A15F808031D7E
:10146000402A8316601C392A0510831205143C2A71
:1014700083160510831205108316A0018A2A831291
:101480000317A701C730A6000130A9001030A8003B
:101490008A110313BA258A15F808031D5E2A8316DC
:1014A000601C572A8510831285145A2A83168510CA
:1014B000831285108316A0018A2A83120317A701BD
:1014C000C730A6000130A9001B30A8008A11031301
:1014D000BA258A15F808031D732A8A1119268A1558
:1014E0008A010028892A0317A601A701A0308400D9
:1014F00083132608840727088A1103138D208A1571
:10150000800000380319892A0317A70AA60A762A39
:1015100003138316A72A46084D3C031DA72A8312EE
:101520000317A601A701A0308400831326088407AF
:1015300027088A110313A0208A1580000038031998
:10154000A62A0317A70AA60A932A03138316BB0128
:101550008A118312742E8A157B108A1191248A15A0
:101560008316BA01B9013A080A3C0318C32AFF3AA4
:10157000031DBE2A3908B83C0318C32A8A118312F6
:10158000CE268A1583167B1DCB2A8A1183129124BD
:101590008A157B11831606168312061AF42A8316FF
:1015A000861583128619F42A32300317AE008A1189
:1015B0000313A4218A15831606168312061AF42A29
:1015C0008316861583128619F42A8A11CE268A1567
:1015D000831606168312061EF22A831686158312B8
:1015E0008619F42A6400E82A831606168312061A5E
:1015F0001A2B831686158312861D1A2B8316BA01A1
:10160000B901323083120317AE008A110313A421EB
:101610008A15831606168312061A1A2B1030FB063B
:101620008A1191248A15831606168312061A1A2B1C
:101630006400132B8316861483128618D62B831608
:10164000BA01B901BD01BC01861483128618432B6F
:101650008316BD0803192E2B8312432B3C08313C03
:101660000318342B8312432B0A3083120317AE0066
:101670008A110313A4218A1564008316BC0A031976
:10168000BD0A242B83128316BD08031D4B2B3C0877
:10169000313C03189D2B8312CD080319622B8A114C
:1016A000362F8A1583168510831285140317A70118
:1016B0006430A6008A11031300268A15831685104C
:1016C000831285108316861483128618692B640092
:1016D000622BCD01B701CC01AD018A11B3278A1568
:1016E0000C300317AD008A11031396238A150130BD
:1016F0000317A900AA008A11031354238A159C30EA
:1017000003178D0001308F008A110313D0238A152F
:1017100003300317A700E830A6008A110313002640
:101720008A150C300317AD008A11031396238A150E
:101730008A1191248A15D62B831686148312861853
:10174000A52B640083169D2B8312CC080319D62B7E
:101750000317AA012D30A9008A11031351248A15F9
:1017600078088316BE0083124D08133C031CD12B4E
:1017700083163E083F3C031DBF2B8312D12B8312DF
:101780004D08CD0A373E8400831383163E0880003F
:10179000373083124D078400831380018A11B327E9
:1017A0008A15CC01AD018A1191248A15831606157C
:1017B000831206190B2C14300317AE008A11031381
:1017C000A4218A1583160615831206190B2C83167D
:1017D000BA01B9018312CC080319F52BCC032D30C3
:1017E0004C07840083138001012CCD080319012CC0
:1017F000CD0337304D078400831380018A11B3274E
:101800008A158A1191248A158316061583120619E2
:101810000B2C6400042C83168615831286195E2C0B
:10182000831606168312061E5E2C8316BA01B901B2
:10183000C001BF01861583128619402C0A30031798
:10184000AE008A110313A4218A1564008316BF0A0F
:101850000319C00AC008031D312C3F08C83C0318F7
:101860003E2C8A11831219268A1583168615831237
:1018700086193C2C6400352C402C83161A2C8312BC
:101880008316C008031D482C3F08053C03185F2C35
:10189000C008031D5F2C3F08C83C031C5F2C83124B
:1018A000CD01B701CC01AD018A1191248A158316AF
:1018B0008615831286195E2C6400572C83168312BA
:0418C000B2286300E7
:04400E00C42CFF3F80
:00000001FF
;PIC16F887
;CRC=4C98  CREATED="30-Ara-25 09:01"
