:1000000003308A00562B0000FF00030E8301A1007D
:100010000A08A0008A010408A2007708A300780853
:10002000A4007908A5007A08A600831383128C30F7
:100030008400001C1D280C182E2822088400230888
:10004000F7002408F8002508F9002608FA0020081F
:100050008A00210E8300FF0E7F0E09008A110A120A
:100060007F280A108A100A11820728340C340134C0
:1000700006340A108A100A1182070034003445340D
:100080005434493441344E344D345334553452345D
:10009000573444344B3447344F3448345634463460
:1000A00000344C34003450344A34423458344334ED
:1000B00059345A3451340034003435343434003433
:1000C000333400340034003432340034003400342B
:1000D0000034003400340034313436340034003419
:1000E0000034003400340034003437340034003439
:1000F00000343834003439343034201000008E019C
:10010000F6308F003C308E00831606148312641084
:10011000061C6414641C9828CE0A0319CF0A83169F
:100120000510831205148316851083128514C728C1
:10013000831605108312051083168510831285100F
:10014000501CC728CF08031DA9284E08023C0318DD
:10015000C528CF08031DB8284E081D3C031CB8282D
:100160004C08CC0A2D3E840083132E308000BF281B
:100170004C08CC0A2D3E840083132D3080002D3096
:100180004C07840083138001D014CF01CE0150109E
:10019000641850140C108A110A121D28CD37F23938
:1001A000202A6536673961332023693761360001BB
:1001B000CD27441DA02C412DC92600005A308400B3
:1001C000831300080319F1280230F800F701F70B38
:1001D000E728F80BE6289730F700F70BED28800B9F
:1001E000E42808006118F6280812F7280816831674
:1001F00008128312E118FE288812FF288816831639
:100200008812831261190629081307290817831613
:1002100008138312E1190E2988130F2988178316F2
:10022000881300008312881583168811172918294E
:10023000831288118316881183120800E201831645
:10024000081600308312081A0130E204831688165B
:1002500000308312881A0130F7000310F70D770879
:10026000E2048316081700308312081B0130F700E0
:10027000F70DF70DFC30F7057708E20483168817B1
:1002800000308312881B0130F700F70DF70DF70DD2
:10029000F830F7057708E2046208F80008008316D2
:1002A0008811881008118312881083168810081688
:1002B000881608178817831208158316081100007E
:1002C0008312881583168811000083121E21780876
:1002D000E1008811831688110000831288158316A7
:1002E0008811722983121E217808E0008811831674
:1002F000881108128812081388138312610EF70000
:10030000F030F70577086004F8007808E000E01F97
:100310008B2983165729DE08031D902988109129FF
:1003200088148316881000008312081183160811A0
:100330000000831288118316881183125F0EE0007B
:100340000F30E0056008E100F2205F080F39E0009F
:10035000E100F2200800831608128812081388139F
:100360008811881008118312881083168810831250
:1003700008118316081183128811831688110F3013
:100380008312DA00DE200130D2005208033C031C45
:10039000D1290330E100F2200530DA00DE20D20A54
:1003A000C5290230E100F2200530DA00DE20D2015A
:1003B0005208033C031CE52952083120D300DE011A
:1003C0005308DF004F21D20AD8298A110A12802B44
:1003D0005608013A0319F629033A0319F829013A94
:1003E0000319FB29073A0319FE29012AD701022A1A
:1003F0004030D700022A1430D700022A5430D700E8
:10040000022AD70101305502D70757088038D80093
:10041000DE015808DF004F2108005B0B102A132A69
:100420004030DC00142ADC0101305A02DC075C0891
:100430008038DD00DE015D08DF004F21080059082B
:10044000073A03192D2A0B3A0319322A063A0319DF
:100450003A2A023A0319402A452A0130DA00DB0021
:100460000D224A2ADE010130DF004F210230DA007E
:10047000DE204A2A0130DA000230DB000D224A2A4F
:10048000DE011030DF004F214A2A0130DE0059081A
:10049000DF004F2108000B08D5008B1383160317CC
:1004A0008C170C140000000083120C087F3903190C
:1004B000922A0313D60003170D080313D70003175E
:1004C0000F080313D8005608D9001F225708031736
:1004D0008D000313580803178F0083168C170C1414
:1004E0000000000083120C0D0E0D7F390319922AB3
:1004F0000313D60003170D080313D70003170F08C3
:100500000313D8005608D9001F22570803178D007F
:100510000313580803178F008D0A03198F0A03135A
:100520004E2A03170313D51B8B17080080080319E5
:10053000AB2AD6010408D5005610831B56140008B8
:10054000D9001F2255088400831356188317840A84
:100550000319850A962A08005B08DD005A08DC00AA
:100560005D08FA005C08840083137A1883178008FA
:100570000319BE2ADC0A0319DD0AB02A5A085C02F4
:10058000F7005D08FA005B08031C5B0FFA027708AE
:10059000F80008000130D9005608DB005508DA00E1
:1005A000AC227808D800D808031DD92A2030F800DA
:1005B000FF2AD701580857020318F32A0310D90D50
:1005C00057085507840083135618831700082D3CDD
:1005D0000319591459083F3C0318F12A3F30F80019
:1005E000FF2AD70ADA2A59083920003A031DFB2AC4
:1005F0003F30F800FF2A59083920F800F8000800B9
:100600000130D5000230D600E82137308400831352
:100610009622CC080319192BD6012D30D500CA22F9
:100620007808D4005408D9001F223C30D9001F227A
:10063000202B7D3003178D0000308F0003134B22D9
:10064000DB013730DA00AC227808D500CC0803197A
:100650002C2BFA0102302E2BFA0100305507D30063
:100660005308D2005208133C031C3B2B2030D90006
:100670001F22D20A322B0130D5000330D600E821E8
:100680002D30840083139622DB012D30DA00AC225A
:100690007808D3005308D2005208133C031C552B92
:1006A0002030D9001F22D20A4C2B0800713083164B
:1006B0008F000F088312CC01CD01CF01CE01501065
:1006C000D010831603170908C039890003131F12BD
:1006D0009F12003003178800831287018801890167
:1006E00083131F3083050313A701A801FF3083166E
:1006F0008600013095008113051085108312AB2907
:100700006430DA00DE20353090008E01F6308F0044
:100710003C308E0083160C14C03083128B040130E1
:10072000D500D600E821CE3003178D0000308F00B1
:1007300003134B220C30D9001F220130D500D60004
:10074000E821D83003178D0000308F0003134B22AF
:100750000023D01CAD2B0023D010831686148312E7
:100760008618D72B831686148312861CB22BCC08CE
:100770000319D72BD6012D30D500CA227808D10015
:100780004D08133C031CD42B51083F3C0319D42BB8
:100790004D08CD0A373E840083135108800037305E
:1007A0004D07840083138001CC01AD010023831623
:1007B000061583120619F52B831606158312061DDE
:1007C000DC2BCC080319EB2BCC032D304C07840019
:1007D00083138001F42BCD080319F42BCD0337309C
:1007E0004D0784008313800100238316861583122E
:1007F0008619042C831686158312861DFA2BCD01CB
:0C080000B701CC01AD010023A92B63005F
:04400E00D42CFF3F70
:00000001FF
;PIC16F887
;CRC=20DC  CREATED="18-Ara-25 09:04"
