:1000000008308A0000280000FF00030E8301A100D1
:100010000A08A0008A010408A2007708A300780853
:10002000A4007908A5007A08A600831383128C30F7
:100030008400801E1D288C1A38288C308400001CF7
:1000400023280C183B288B1E27280B193E28220832
:1000500084002308F7002408F8002508F900260882
:10006000FA0020088A00210E8300FF0E7F0E09008F
:100070008A110A129C288A110A12EB288A110A1284
:100080004F290A108A100A11820728340C340134CF
:1000900006340A108A100A118207003400344534ED
:1000A0005434493441344E344D345334553452343D
:1000B000573444344B3447344F3448345634463440
:1000C00000344C34003450344A34423458344334CD
:1000D00059345A3451340034003435343434003413
:1000E000333400340034003432340034003400340B
:1000F00000340034003400343134363400340034F9
:100100000034003400340034003437340034003418
:100110000034383400343934303420100000D52C09
:10012000CB2AA0264F2255172E170001CD27441D9C
:10013000A02C412DC92600008C1EE7288C1E9E286D
:100140001A088316CF004F085C3C0319AF284F08EC
:100150000A3C0319AF284F080D3C031DD928831210
:10016000E7080319D7284E306707840083138001FE
:100170008316D3014E30D200D101A030D0005208F6
:1001800084008313531883170008D4005008840098
:100190008313511883175408800080080319D3284B
:1001A000D00AD20ABF2883126814E701EE01E728BB
:1001B000831683126708133C031CE7286708E70AC5
:1001C0004E3E8400831383164F08800083128C12E6
:1001D0008A110A1227288E01F6308F003C308E00DB
:1001E0006C087C3C031CF728EB0A0319EC0A831605
:1001F00006144F1083120618002983164F14831219
:1002000083164F1C13298312EC01EB01E90A031931
:10021000EA0A8316051083120514831685108312CB
:100220008514432983160510831205108316851043
:1002300083128510E81C4329EC01EB01EA08031D39
:1002400025296908023C03184129EA08031D3429BD
:1002500069081D3C031C34294C08CC0A2D3E84003F
:1002600083132E3080003B294C08CC0A2D3E84009D
:1002700083132D3080002D304C07840083138001C0
:100280006815EA01E901E81083164F1C4A29831218
:10029000E814831683120C108A110A122728ED0A1B
:1002A0006D080A3C03185629ED01E8150B118A1157
:1002B0000A122728CD37F239202A6536673961338B
:1002C0000001CD27441DA02C412DC9260001D622B6
:1002D000D224A0234F27C422D2244C224900CD2768
:1002E000441DA02C412DC9260001C627D226412A33
:1002F000A020D424CC24D927D2100001CD27441D1E
:10030000A02C412DC9260000C530840083130008AD
:10031000031997290230F800F701F70B8D29F80B24
:100320008C299730F700F70B9329800B8A29080056
:1003300083164C189F2983120812A1298316831251
:10034000081683160812CC18A92983128812AB2923
:10035000831683128816831688124C19B3298312C8
:100360000813B52983168312081783160813CC19AE
:10037000BD2983128813BF29831683128817831619
:10038000881300008312881583168811C729C8298D
:100390008312881183168811831208008316CD01F9
:1003A000081600308312081A01308316CD0488160F
:1003B00000308312881A0130F7000310F70D770818
:1003C0008316CD04081700308312081B0130F70094
:1003D000F70DF70DFC30F70577088316CD04881765
:1003E00000308312881B0130F700F70DF70DF70D71
:1003F000F830F70577088316CD044D08F80083120E
:10040000080083168811881008118312881083163B
:10041000881008168816081788178312081583167F
:1004200008110000831288158316881100008312BA
:10043000CE2178088316CC00831288118316881188
:1004400000008312881583168811262A8312CE2174
:1004500078088316CB00831288118316881108123E
:100460008812081388134C0EF700F030F705770850
:100470004B04F8007808CB00CB1B092AC908031DE0
:10048000452A83128810472A8316831288148316FC
:1004900088100000831208118316081100008312CF
:1004A0008811831688114A0ECB000F30CB054B08FC
:1004B000CC008312982183164A080F39CB00CC0058
:1004C00083129821080083160812881208138813D3
:1004D00088118810081183128810831688108312DF
:1004E00008118316081183128811831688110F30A2
:1004F000C5008312842101308316BD003D08033CF2
:10050000031C8E2A0330CC008312982105308316F9
:10051000C500831284218316BD0A7E2A0230CC00D6
:100520008312982105308316C50083128421831617
:10053000BD013D08033C031CAA2A3D08831241204B
:100540008316BE00C9013E08CA0083120122831629
:10055000BD0A992A8312080003178D0183168C1394
:100560000C1483120C080313CD004D08143C031C1B
:10057000CD018316BD0183124D0883163D02031879
:10058000D62A37303D078400831301303D07C00071
:100590004008831203178D0083168C130C148312EA
:1005A0000C08800083160313BD0ABB2A3730831260
:1005B0004D078400831380018A150A1245283230C2
:1005C00003178D0083168C130C1483120C088316EA
:1005D0000313BE003E08143C031CBE01BD013E08CF
:1005E0003D020318082BA0303D07840083133330ED
:1005F0003D07C1004108831203178D0083168C1339
:100600000C1483120C08800083160313BD0AEF2A12
:10061000A0303E0784008313800183128A150A12DA
:10062000482883164208013A83120319212B033A02
:100630000319242B013A0319282B073A03192C2BF1
:10064000312B8316C301332B40308316C300332B69
:1006500014308316C300332B54308316C300332B5E
:1006600083128316C30101304102C3074308803857
:10067000C400C9014408CA0083120122080083167D
:10068000460B432B462B4030C700472BC701013098
:100690004502C70747088038C800C9014808CA0092
:1006A00083120122080083164408073A83120319B3
:1006B000632B0B3A03196A2B063A0319762B023A7D
:1006C00003197E2B852B01308316C500C6008312CB
:1006D0003F238C2B8316C9010130CA0083120122EB
:1006E00002308316C500831284218C2B01308316BF
:1006F000C5000230C60083123F238C2B8316C9012C
:100700001030CA00831201228C2B01308316C900DD
:100710004408CA008312012208000B088316C00097
:1007200083128B13831603178C170C140000000020
:1007300083120C087F390319EA2B83160313C100B7
:10074000831203170D0883160313C20083120317C5
:100750000F0883160313C3004108C40083125323F8
:1007600083164208831203178D0083160313430870
:10077000831203178F0083168C170C1400000000DF
:1007800083120C0D0E0D7F390319EA2B8316031308
:10079000C100831203170D0883160313C2008312CE
:1007A00003170F0883160313C3004108C400831204
:1007B000532383164208831203178D0083160313F5
:1007C0004308831203178F008D0A03198F0A03133E
:1007D000922B031783160313C01FF12B83128B1761
:1007E000831683120800800803190F2C8316C10199
:1007F0000408C0004110831B41140008C400831288
:100800005323831640088400831341188317840AF6
:10081000031D0D2C8312850A83168312F32B080007
:1008200083164608C8004508C7004808FA0047086C
:10083000840083137A18831780080319232CC70AAE
:100840000319C80A152C45084702F7004808FA00A2
:100850004608031C460FFA027708F80083120800C6
:1008600001308316C4004108C6004008C500831249
:10087000102478088316C300C308031D422C2030BF
:10088000F8006E2CC2014308420203185C2C0310CE
:10089000C40D4208400784008313411883170008E1
:1008A0002D3C0319441444083F3C03185A2C3F3094
:1008B000F8006E2CC20A432C440883124920003AE7
:1008C000031D672C3F30F80083166E2C83128316AD
:1008D000440883124920F800F800831683120800A8
:1008E00001308316C1000230C20083121123373059
:1008F00084008313F323CC080319912C8316C101C0
:100900002D30C0008312302478088316BF003F08C2
:10091000C400831253233C308316C4008312532334
:10092000982C8D3003178D0000308F0003138D231A
:100930008316C6013730C500831210247808831649
:10094000C0008312CC080319A82CFA010230AA2C8B
:10095000FA01003083164007BE003E08BD003D0886
:10096000133C031CBA2C2030C4008312532383167B
:10097000BD0AAF2C0130C1000330C2008312112325
:100980002D3084008313F3238316C6012D30C50058
:100990008312102478088316BE003E08BD003D086F
:1009A000133C031CDA2C2030C4008312532383161B
:1009B000BD0ACF2C8312080004308316C000A008A3
:1009C00003192E2DC601A030C5008312102478080B
:1009D0008316BD000130C1000430C2008312112310
:1009E0008316BE013E08133C031C2E2D3E088312C5
:1009F0006E078316C10040083D07C2004108C300CE
:100A00004208C4004408F801430203180A2D4308B1
:100A1000F700162DF7010830C500C30DF70D440887
:100A200077020318F700F80DC50B0D2D7708BF00EE
:100A30003D083F020318272DA0303F078400831391
:100A40000008C100C400831253232B2D83162030CD
:100A5000C400831253238316BE0AF22C83128A1514
:100A60000A129F288316C601A030C50083121024E5
:100A700078088316BE0083120B08F7008B13323000
:100A800003178D00831603133E08831203178C008F
:100A900083168C130C1555308D00AA308D008C14E4
:100AA0008C18502D0C117708831203138B048316B6
:100AB000BD013E083D020318872D33303D07BF00BE
:100AC000A0303D07840083130008C00083120B0888
:100AD000F7008B1383163F08831203178D008316CC
:100AE00003134008831203178C0083168C130C1514
:100AF00055308D00AA308D008C148C187D2D0C1172
:100B00007708831203138B048316BD0A592D8312B1
:100B10008A150A12A6280C308316C40083125323A8
:100B200001308316C100C200831211238F300317D6
:100B30008D0000308F0003138D2302308316BD001B
:100B4000FA30C500831284218316BD0BA02DC90184
:100B50000830CA0083120122831605108312051083
:100B60008316851083128510630083160614831282
:100B7000061CCD2D831686148312861CCD2D83165C
:100B800006158312061DCD2D831686158312861D2C
:100B9000CD2D831606168312061ECF2DB42D63228B
:100BA00001308316C100C20083121123963003174F
:100BB0008D0000308F0003138D237024EC01EB01B6
:100BC0008A150A12B82880080319002E8316BE0160
:100BD0000408BD003E10831B3E14000883120C1E47
:100BE000EF2D990083163D08840083133E18831768
:100BF000840A031DFE2D8312850A83168312E32DBA
:100C00008A150A12F6280B08F7008B1303178D01BB
:100C100003134D0803178C0083168C130C155530E5
:100C20008D00AA308D008C148C18142E0C117708AE
:100C3000831203138B048316BD0183124D088316A0
:100C40003D0203184D2E01303D07BE0037303D07F1
:100C5000840083130008BF0083120B08F7008B1376
:100C600083163E08831203178D00831603133F0873
:100C7000831203178C0083168C130C1555308D00CE
:100C8000AA308D008C148C18432E0C117708831217
:0E0C900003138B048316BD0A1D2E8312080069
:10100000713083168F000F08031787110C300313FC
:101010009900A2309800903083129800CC01CD0145
:10102000E7016810EA01E901EC01EB01E810681141
:10103000ED01E811EE01831603170908C039890094
:1010400003131F129F1200300317880083128701B9
:101050008801890183131F3083050313A701A801A9
:10106000FF3083168600013095008113051085102E
:101070008A11831263228A1564308316C5008A118F
:10108000831284218A158A11AC2A8A158A11DF2AD3
:101090008A15353090008E01F6308F003C308E007E
:1010A00083160108C039073881000C1483128B168F
:1010B00083168C16C03083128B0401308316C10056
:1010C000C2008A11831211238A155A3003178D002A
:1010D00001308F008A1103138D238A150430831683
:1010E000BD00FA30C5008A11831284218A15831647
:1010F000BD0B71280C30C4008A11831253238A154A
:1011000001308316C100C2008A11831211238A158F
:10111000613003178D0001308F008A1103138D2376
:101120008A158A1170248A15E81DA028E8118316F3
:10113000A0080319A1288312EE0A8A11DC2C8A1553
:1011400083168312681CAB288A11322D8A15681009
:101150008A1170248A156C080A3C0318B928FF3AD2
:10116000031DB6286B08B83C0318B9288A118B2DCB
:101170008A15681DBF288A1170248A156811831684
:101180008614831286189129EC01EB018316BA01AB
:10119000B901861483128618E5288316BA08031944
:1011A000D3288312E5283908313C0318D928831243
:1011B000E5280A30C5008A11831284218A15831616
:1011C000B90A0319BA0AC92883128316BA08031D7B
:1011D000ED283908313C03185A298312CD08031928
:1011E0000E293730840083138A11E32D8A150D30C0
:1011F0000C1EF82899000A300C1EFC289900831652
:1012000085108312851464308316C5008A118312F9
:1012100084218A15831685108312851083168614FF
:101220008312861C0E29CD01B701CC01AD018A11B4
:1012300003268A150C308316C4008A1183125323A7
:101240008A1501308316C100C2008A11831211234E
:101250008A15673003178D0001308F008A11031340
:101260008D238A1504308316BD00FA30C5008A111B
:10127000831284218A158316BD0B35290C30C400D6
:101280008A11831253238A1501308316C100C200CC
:101290008A11831211238A156F3003178D000130D4
:1012A0008F008A1103138D238A158A1170248A15E1
:1012B00091298316861483128618602983165A2969
:1012C000CC08031991298316C1012D30C0008A1161
:1012D000831230248A1578088316BB0083124D08C8
:1012E000133C031C8C2983163B083F3C031D7A29C1
:1012F00083128C2983124D08CD0A373E8400831354
:1013000083163B088000373083124D078400831317
:1013100080018A1103268A15CC01AD018A1170243F
:101320008A158316061583120619C22914308316EE
:10133000C5008A11831284218A158316061583122B
:101340000619C229EC01EB01CC080319AE29CC0324
:101350002D304C07840083138001BA29CD0803196E
:10136000BA29CD0337304D078400831380018A11D9
:1013700003268A158A1170248A158316061583128E
:10138000061DBD298316861583128619D529EC0101
:10139000EB01831686158312861DC929CD01B7017D
:1013A000CC01AD018A1170248A15831606168312AA
:1013B000061A702AEC01EB010C308316C4008A1166
:1013C000831253238A1501308316C100C2008A118B
:1013D000831211238A15753003178D0001308F0099
:1013E0008A1103138D238A158316851083128514A1
:1013F000C8308316C5008A11831284218A1583168A
:10140000851083128510831606168312061E032A82
:101410008316BC013C08633C031C2A2A83120B0878
:10142000F7008B1383163C08831203178D008C0181
:1014300083168C130C1555308D00AA308D008C143A
:101440008C18202A0C117708831203138B0483163F
:10145000BC0A0A2A8312CD01B701CC01AD01831663
:10146000A0010C30C4008A11831253238A15013065
:101470008316C100C2008A11831211238A157E309F
:1014800003178D0001308F008A1103138D238A15F5
:101490008A1170248A1583168510831285143230C0
:1014A0008316C5008A11831284218A15831685103C
:1014B0008312851032308316C5008A11831284216D
:1014C0008A15831685108312851432308316C50061
:1014D0008A11831284218A15831685108312851040
:0414E00094286300E9
:04400E00D42CFF3F70
:00000001FF
;PIC16F887
;CRC=9CF0  CREATED="19-Ara-25 19:18"
