:1000000005308A001D2D00000A108A100A1182078F
:1000100028340C34013406340A108A100A1182077D
:100020002E342D3400342D342E342E342E3400341E
:100030002D342E342D342E3400342D342E342E34E1
:1000400000342E3400342E342E342D342E3400342B
:100050002D342D342E3400342E342E342E342E34C0
:1000600000342E342E3400342E342D342D342D34DF
:1000700000342D342E342D3400342E342D342E34CF
:100080002E3400342D342D3400342D342E340034ED
:100090002D342D342D3400342E342D342D342E3483
:1000A00000342D342D342E342D3400342E342D34A0
:1000B0002E3400342E342E342E3400342D340034BB
:1000C0002E342E342D3400342E342E342E342D3450
:1000D00000342E342D342D3400342D342E342E346F
:1000E0002D3400342D342E342D342D3400342D3461
:1000F0002D342E342E3400342D342D342D342D3423
:100100002D3400342E342D342D342D342D34003440
:100110002E342E342D342D342D3400342E342E3400
:100120002E342D342D3400342E342E342E342E34EF
:100130002D3400342E342E342E342E342E3400340C
:100140002D342E342E342E342E3400342D342D34D0
:100150002E342E342E3400342D342D342D342E34C0
:100160002E3400342D342D342D342D342E340034DF
:100170000A108A100A11820741344234433444344D
:10018000453446344734483449344A344B344C348B
:100190004D344E344F34503451345234533454343B
:1001A000553456345734583459345A343034313441
:1001B00032343334343435343634373438343934F3
:1001C000D432EC33F2306610D334733AE53669102A
:1001D000F618AE1A00005322A0256139741D2021A3
:1001E000E535EC32EE34F93772005322A02561393F
:1001F000741DA0274B102010201020102000532227
:10020000A0256139741D2024412AC110201020101E
:100210002000C830FA34721DA0296937F9306C10FB
:10022000C2326B366537E93C6F390001C43AF23AA5
:100230006D1DA025E13CE432E434EC34F937721052
:100240000001C43AF23A6D1DA025E13C693AA027AD
:100250004B10201020100001C43AF23A6D1DA02569
:10026000E13C693A2024412A411020100001C830A5
:10027000FA34721DA0296937F9306C10C2326B361E
:100280006537E93C6F390001C43AF23A6D1DA02C84
:1002900065376910D330F434721020100001C83073
:1002A000FA34721DA0296937F9306C10C2326B36EE
:1002B0006537E93C6F390001D334733AE536A0293C
:1002C00069336939EC30EE34F9377200C830FA34EA
:1002D000721DA0296937F9306C10C2326B36653750
:1002E000E93C6F390000593084008313000803197A
:1002F00086290230F800F701F70B7C29F80B7B29DF
:100300009730F700F70B8229800B792908006018D5
:100310008B2908128C290816831608128312E018FC
:1003200093298812942988168316881283126019DB
:100330009B2908139C290817831608138312E019B8
:10034000A3298813A4298817831688130000831211
:10035000881583168811AC29AD298312881183165C
:10036000881183120800E1018316081600308312F9
:10037000081A0130E1048316881600308312881AA7
:100380000130F7000310F70D7708E1048316081712
:1003900000308312081B0130F700F70DF70DFC3019
:1003A000F7057708E1048316881700308312881B4D
:1003B0000130F700F70DF70DF70DF830F705770866
:1003C000E1046108F80008008316881188100811FC
:1003D0008312881083168810081688160817881745
:1003E00083120815831608110000831288158316DE
:1003F000881100008312B3217808E0008811831669
:10040000881100008312881583168811072A831229
:10041000B3217808DF00881183168811081288122A
:10042000081388138312600EF700F030F705770881
:100430005F04F8007808DF00DF1F202A8316EC290C
:10044000DD08031D252A8810262A881483168810A3
:10045000000083120811831608110000831288110E
:100460008316881183125E0EDF000F30DF055F08F0
:10047000E00087215E080F39DF00E00087210800D7
:10048000831608128812081388138811881008111F
:10049000831288108316881083120811831608119E
:1004A00083128811831688110F308312D9007321AB
:1004B0000130D4005408033C031C662A0330E000DA
:1004C00087210530D9007321D40A5A2A0230E0006E
:1004D00087210530D9007321D4015408033C031C43
:1004E0007A2A54080420D500DD015508DE00E421F5
:1004F000D40A6D2A8A110A125D2D5708013A031990
:100500008B2A033A03198D2A013A0319902A073AD4
:100510000319932A962AD801972A4030D800972A9F
:100520001430D800972A5430D800972AD8010130C7
:100530005602D80758088038D900DD015908DE0076
:10054000E42108005A0BA52AA82A4030DB00A92A7A
:10055000DB0101305902DB075B088038DC00DD017C
:100560005C08DE00E42108005808073A0319C22A93
:100570000B3A0319C72A063A0319CF2A023A03197C
:10058000D52ADA2A0130D900DA00A222DF2ADD01D9
:100590000130DE00E4210230D9007321DF2A01306E
:1005A000D9000230DA00A222DF2ADD011030DE009D
:1005B000E421DF2A0130DD005808DE00E4210800D4
:1005C0000B08D4008B13831603178C170C14000030
:1005D000000083120C087F390319272B0313D50061
:1005E00003170D080313D60003170F080313D700D2
:1005F0005508D800B422560803178D000313570876
:1006000003178F0083168C170C1400000000831250
:100610000C0D0E0D7F390319272B0313D50003177B
:100620000D080313D60003170F080313D70055084E
:10063000D800B422560803178D0003135708031778
:100640008F008D0A03198F0A0313E32A031703137C
:10065000D41B8B1708001308690893008316140C29
:10066000031C2F2B83121308F8000800E7014B111D
:100670004B08831687008312071161084038E80091
:10068000E9002B236508E800E9002B236408E80053
:10069000E9002B236308E800E9002B236208E80047
:1006A000E9002B23E108031D592B9530E9002B238A
:1006B000642B6108083C031D612B8730E9002B2364
:1006C000642BFF30E9002B23FF30E9002B2378084F
:1006D000E600660F712B6708E70AC83C031C712B04
:1006E000642B6608F80008004B114B08831687003E
:1006F00083120715D4015408093C031C842BFF30D6
:10070000E9002B23D40A7B2BE101E501E401E3019D
:10071000E2013623780B8D2B962B4B114B08831659
:100720008700831207150130F800E52B4B114B08A9
:1007300083168700831207150830E100E501E40104
:100740000130E300AA30E20036234B114B08831638
:10075000870083120715D701D6013730E100E50184
:10076000E401E301E20136234B114B0883168700B5
:10077000831207152930E1004030E500E401E30170
:10078000E20136237808D5004B114B088316870009
:10079000831207155708FA005608D60A0319D70A14
:1007A000D8007A08D900023C0318E02BFF3A031D59
:1007B000DD2B5808E83C0318E02B0230F800E52B4D
:1007C000D508031DAD2B0030F8008A110A12782DD0
:1007D00080080319FD2BD7010408D6005710831B8E
:1007E00057140008D800B422560884008313571801
:1007F0008317840A0319850AE82B08005708D900D3
:100800005608D8005908FA005808840083137A184B
:10081000831780080319102CD80A0319D90A022C4F
:1008200056085802F7005908FA005708031C570FDA
:10083000FA027708F80008000130D6000230D7002D
:100840007D22303084008313E823D7013030D60076
:10085000FE237808D5005508D4005408133C031C27
:10086000362C2030D800B422D40A2D2C0130D600EA
:100870000330D7007D22263084008313E823D7017C
:100880002630D600FE237808D5005508D400540839
:10089000133C031C502C2030D800B422D40A472C1F
:1008A0000800D6015608233C031CB62C0310560D35
:1008B000D700570A0C20FA0057080C20D7007A08F6
:1008C000D8005508DA005408D9005808DC00570849
:1008D000DB005A08FA005908840083137A1883173A
:1008E0000008DD005C08FA005B08840083137A18B6
:1008F000831700085D02031D942C5A08FA0059085A
:10090000840083137A1883178008031D8A2C003013
:10091000F800AC2C5A08FA005908D90A0319DA0A67
:10092000DB0A0319DC0A692C5A08FA00590884000A
:1009300083135A1883170008DD005C08FA005B086F
:10094000840083135C18831700085D020318AA2C27
:10095000FF30AB2C0130F800F808031DB42C56080A
:10096000B820F800F800B82CD60A522C3F30F80016
:100970008A110A124F2E1830E1005B08E5005A0870
:10098000E4005908E3005808E2003623F808031D84
:10099000142DFF30E9002B23FE30E9002B23E0016A
:1009A000DF016008013C031CEE2CE008031DE72C6E
:1009B0005E085F020318E72C5C085F07840083135E
:1009C0005D1883170008E100E9002B23EA2C203092
:1009D000E9002B23DF0A0319E00AD12CFF30E900DC
:1009E0002B23FF30E9002B23FF30E9002B2378086D
:1009F0001F39053C0319052D4B114B088316870041
:100A0000831207150130F8001C2DFF30E9002B235D
:100A1000F8080319052D4B114B0883168700831224
:100A200007150030F8001C2D4B114B08831687006A
:100A3000831207150130F8000800C501C601CA017C
:100A4000C901C801C701FF30CB008316031709088D
:100A5000C039890003131F129F120030031788004A
:100A6000831287018801890183131F3083050313D3
:100A7000A001A1019412CB124B08831687008312A8
:100A80004B164B08831687008312CB114B08831635
:100A90008700223083129400003083169400950161
:100AA0008117FF3086000510851005108312051090
:100AB0008316851083128510402A6430D900732173
:100AC0000130D600D7007D22E03003178D000030C2
:100AD0008F000313E0220130D6000230D7007D22C0
:100AE000EB3003178D0000308F000313E022742BCE
:100AF000F808031D9E2D0130D6000230D7007D225C
:100B0000F53003178D0000308F000313E02294129C
:100B1000CB124B088316870083124B164B088316A3
:100B200087008312CB114B08831687002130831274
:100B30009400003083169400AB2D83120130D60050
:100B40000230D7007D22FF3003178D0000308F0068
:100B50000313E02283168312A601B0010430D400EF
:100B6000FA30D9007321D40BB02D0C30D800B42248
:100B70000130D600D7007D22093003178D000130E7
:100B80008F000313E0221C24831606148312061C14
:100B90001F2ECD01CC018316051083120514831678
:100BA000851083128514831606148312061CEB2D00
:100BB0000A30D90073210A30CC070318CD0A4D083A
:100BC0000A3C0318EA2DFF3A031DE92D4C08B83CF6
:100BD000031CEB2DD32D83160510831205108316ED
:100BE0008510831285104D08013C031C0E2E031D39
:100BF000FD2D4C088F3C031C0E2E4508043C031CA5
:100C00000D2E4508C50A263E840083132E30800031
:100C1000263045078400831380011E2E4508043CBE
:100C2000031C1E2E4508C50A263E840083132D3062
:100C30008000263045078400831380011C2483161E
:100C400086148312861CB92E831685108312851490
:100C50001E30D90073218316851083128510CF01B1
:100C6000CE01831686148312861C3E2E0A30D900CC
:100C700073210A30CE070318CF0A312E4F08013CEA
:100C8000031C652E031D482E4E08F33C031C652EE5
:100C9000C5080319642ED5012630D400512C7808DC
:100CA000D0004608133C031C612E4608C60A303E9D
:100CB000840083135008800030304607840083137B
:100CC0008001C501A6011C24B92E0130D600D70031
:100CD0007D22163003178D0001308F000313E022B0
:100CE0000310D401470DD500480DD600490DD7009B
:100CF000DB005608DA005508D9005408D800DD0199
:100D00003030DC004608DE00BB24F808031D9C2EB2
:100D10000130D600D7007D22213003178D0001302D
:100D20008F000313E0220130C7070318C80A031914
:100D3000C90A0319CA0AA72E0130D600D7007D229E
:100D40002C3003178D0001308F000313E022043094
:100D5000D400FA30D9007321D40BA92E0130D6006B
:100D6000D7007D22373003178D0001308F00031329
:100D7000E022831606158312061DFC2E83168510AD
:100D8000831285141E30D9007321831685108312B7
:100D90008510D201D101831606158312061DD82EA7
:100DA0000A30D90073210A30D1070318D20ACB2E9A
:100DB0005208013C031CEC2E031DE22E5108F33CAB
:100DC000031CEC2EC5080319EB2EC503263045077E
:100DD000840083138001FB2EC5080319F22EC50180
:100DE000A601FB2EC6080319FB2EC60330304607AA
:100DF0008400831380011C24831686158312861DAC
:100E0000302F8316861583128619012FC501A6017E
:100E1000C601B0010130C7070318C80A0319C90A7F
:100E20000319CA0A0130D600D7007D2244300317C7
:100E30008D0001308F000313E0220230D400FA301D
:100E4000D9007321D40B1F2F0130D600D7007D228B
:100E50004F3003178D0001308F000313E0221C2454
:100E6000831606168312061E702F8316061683122B
:100E7000061A352F0C30D800B4220130D600D70026
:100E80007D225C3003178D0001308F000313E022B8
:100E9000C501A601C601B001CA01C901C801C70147
:100EA000D301DB01DA01D901D801DD015330DC00C7
:100EB000DE01BB240430D400FA30D9007321D40BF6
:100EC0005C2F0C30D800B4220130D600D7007D2230
:100ED000663003178D0001308F000313E0221C24BD
:040EE000C42D6300BA
:04400E00F22CFF3F52
:00000001FF
;PIC16F887
;CRC=47E4  CREATED="03-Ara-25 10:31"
