:1000000008308A00B4280000FF00030E8301A1001D
:100010000A08A0008A010408A2007708A300780853
:10002000A4007908A5007A08A600831383128C30F7
:100030008400801E1D288C1A38288C308400001CF7
:1000400023280C183B288B1E27280B193E28220832
:1000500084002308F7002408F8002508F900260882
:10006000FA0020088A00210E8300FF0E7F0E09008F
:100070008A110A12DC288A110A1206298A110A1228
:1000800071290A108A100A11820728340C340134AD
:1000900006340A108A100A118207003400344534ED
:1000A0005434493441344E344D345334553452343D
:1000B000573444344B3447344F3448345634463440
:1000C00000344C34003450344A34423458344334CD
:1000D00059345A3451340034003435343434003413
:1000E000333400340034003432340034003400340B
:1000F00000340034003400343134363400340034F9
:100100000034003400340034003437340034003418
:10011000003438340034393430340A108A100A116B
:10012000820746344F3452344D34413454342034F1
:100130004834413454344134533449340034201069
:10014000201020102010201020102010201020102F
:1001500020100000CD27441DA026C52941252010D0
:1001600020102010201020100001CD27441DA025B4
:10017000CF26552A2010201020102010201000011A
:10018000201000012010201020102010201020101E
:1001900020102010201020100000D52CCB2AA026E3
:1001A0004F2255172E170000C822D0294910D324FA
:1001B000CC24CE24D92752008C1E02298C1EDE2886
:1001C0001A088316D4005408243C0319F601540875
:1001D0000A3C0319EF2854080D3C031DF6284E3045
:1001E00076078400831380017B1401297608253C5F
:1001F000031C01297608F60A4E3E84008313540836
:10020000800083128C128A110A1227288E01F63080
:100210008F003C308E0083163A087C3C031C132967
:10022000B90A0319BA0A06145410831206181B29B6
:100230008316541483128316541C2C29BA01B90155
:10024000FC0A0319FD0A0510831205148316851094
:1002500083128514682983160510831205108316EE
:10026000851083128510FB1C68298316BA01B90119
:10027000FD08031D3F297C08023C03186529FD0881
:10028000031D50297C081D3C031C502983124C0877
:10029000CC0A2D3E840083132E308000582983160B
:1002A00083124C08CC0A2D3E840083132D3080002D
:1002B0004C08093C03185E290930CC002D304C074E
:1002C0008400831380017B158316FD01FC018312DA
:1002D000FB1083165418FB1483120C108A110A1297
:1002E0002728FE0A7E083C3C03187829FE01FB15EE
:1002F0000B118A110A122728CD37F239202A6536C8
:10030000673961330001D622D224A0234F27C422AB
:10031000D2244C224900CA308400831300080319F8
:100320009E290230F800F701F70B9429F80B932966
:100330009730F700F70B9A29800B91290800831654
:100340005118A62983120812A829831683120816A9
:1003500083160812D118B02983128812B229831685
:1003600083128816831688125119BA29831208132A
:10037000BC2983168312081783160813D119C429C0
:1003800083128813C629831683128817831688134D
:1003900000008312881583168811CE29CF29831275
:1003A000881183168811831208008316D20108165B
:1003B00000308312081A01308316D20488160030E8
:1003C0008312881A0130F7000310F70D770883169F
:1003D000D204081700308312081B0130F700F70D14
:1003E000F70DFC30F70577088316D2048817003024
:1003F0008312881B0130F700F70DF70DF70DF83069
:10040000F70577088316D2045208F8008312080013
:10041000831688118810081183128810831688109B
:1004200008168816081788178312081583160811EE
:100430000000831288158316881100008312D521CD
:1004400078088316D1008312881183168811000062
:1004500083128815831688112D2A8312D5217808D6
:100460008316D0008312881183168811081288120F
:1004700008138813510EF700F030F7057708500481
:10048000F8007808D000D01B102ACE08031D4C2A93
:10049000831288104E2A83168312881483168810BC
:1004A00000008312081183160811000083128811BE
:1004B000831688114F0ED0000F30D0055008D100A0
:1004C00083129F2183164F080F39D000D100831269
:1004D0009F210800831608128812081388138811B8
:1004E000881008118312881083168810831208114F
:1004F0008316081183128811831688110F30CA00E1
:1005000083128B2101308316C1004108033C031C78
:10051000952A0330D10083129F2105308316CA002B
:1005200083128B218316C10A852A0230D1008312DF
:100530009F2105308316CA0083128B218316C101C7
:100540004108033C031CB12A410883124120831651
:10055000C200CE014208CF00831208228316C10ACE
:10056000A02A8312080003178D0183168C130C1424
:1005700083120C080313CD004D08143C031CCD015D
:100580008316C10183124D08831641020318DE2A27
:10059000373041078400831301304107C400440809
:1005A000831203178D0083168C130C1483120C080E
:1005B0008000640083160313C10AC22A37308312F5
:1005C0004D078400831380018A150A120A293230EC
:1005D00003178D0083168C130C1483120C088316DA
:1005E0000313C2004208143C031CC201C1014208AB
:1005F00041020318112BA0304107840083133330CC
:100600004107C5004508831203178D0083168C131C
:100610000C1483120C088000640083160313C10AB3
:10062000F72AA030420784008313800183128A15C1
:100630000A120D2983164608013A831203192A2B40
:10064000033A03192D2B013A0319312B073A0319E9
:10065000352B3A2B8316C7013C2B40308316C7003D
:100660003C2B14308316C7003C2B54308316C70034
:100670003C2B83128316C70101304502C707470888
:100680008038C800CE014808CF0083120822080035
:1006900083164B0B4C2B4F2B4030CC00502BCC01F6
:1006A00001304A02CC074C088038CD00CE014D08FD
:1006B000CF0083120822080083164908073A8312E4
:1006C00003196C2B0B3A0319732B063A03197F2B72
:1006D000023A0319872B8E2B01308316CA00CB00F8
:1006E00083124823952B8316CE010130CF0083124D
:1006F000082202308316CA0083128B21952B013009
:100700008316CA000230CB0083124823952B831630
:10071000CE011030CF0083120822952B01308316B2
:10072000CE004908CF008312082208000B08831668
:10073000C50083128B13831603178C170C1400004B
:10074000000083120C087F390319F32B831603135F
:10075000C600831203170D0883160313C700831204
:1007600003170F0883160313C8004608C900831235
:100770005C2383164708831203178D008316031327
:100780004808831203178F0083168C170C1400007F
:10079000000083120C0D0E0D7F390319F32B831605
:1007A0000313C600831203170D0883160313C70033
:1007B000831203170F0883160313C8004608C900E5
:1007C00083125C2383164708831203178D00831658
:1007D00003134808831203178F008D0A03198F0A29
:1007E00003139B2B031783160313C51FFA2B8312C6
:1007F0008B1783168312080080080319182C8316A0
:10080000C5010408C4004510831B45140008C90035
:1008100083125C23831644088400831345188317CE
:10082000840A031D162C8312850A83168312FC2B5F
:10083000080083164A08CC004908CB004C08FA008F
:100840004B08840083137A188317800803192C2C13
:10085000CB0A0319CC0A1E2C49084B02F7004C089E
:10086000FA004A08031C4A0FFA027708F8008312BC
:10087000080001308316C8004508CA004408C900B2
:100880008312192478088316C700C708031D4B2C50
:100890002030F800772CC601470846020318652C63
:1008A0000310C80D460844078400831345188317B6
:1008B00000082D3C0319481448083F3C0318632CDA
:1008C0003F30F800772CC60A4C2C48088312492088
:1008D000003A031D702C3F30F8008316772C8312EA
:1008E0008316480883124920F800F8008316831203
:1008F000080001308316C500C60083121A237B1A34
:10090000892CAA3003178D0000308F000313962323
:10091000902CB53003178D0000308F000313962301
:1009200001308316C5000230C60083121A23373007
:1009300084008313FC23CC080319B12C8316C50152
:100940002D30C4008312392478088316C30043086D
:10095000C90083125C233C308316C90083125C23D8
:10096000B82CC03003178D0000308F00031396237E
:100970008316CA013730C9008312192478088316F8
:10098000C4008312CC080319C82CFA010230CA2C07
:10099000FA01003083164407C2004208C100410832
:1009A000133C031CDA2C2030C90083125C2383160D
:1009B000C10ACF2C0130C5000330C60083121A23B0
:1009C0002D3084008313FC238316CA012D30C90007
:1009D0008312192478088316C2004208C100410816
:1009E000133C031CFA2C2030C90083125C238316AD
:1009F000C10AEF2CA008031D0B2D0130C5000430E7
:100A0000C60083121A23C23003178D0000308F00F6
:100A10000313962383168312080004308316C40040
:100A2000A008031D222D0130C5000430C60083122A
:100A30001A239F3003178D0000308F000313962375
:100A40006D2D8316CA01A030C900831219247808BD
:100A50008316C1000130C5000430C60083121A237A
:100A60008316C2014208133C031C6C2D42083B074D
:100A7000C50044084107C6004508C7004608C8002D
:100A80004808F80147020318482D4708F700542D7D
:100A9000F7010830C900C70DF70D480877020318A1
:100AA000F700F80DC90B4B2D7708C300410843022E
:100AB0000318652DA0304307840083130008C50088
:100AC000C90083125C23692D83162030C90083126C
:100AD0005C238316C20A322D83128A150A126929F1
:100AE00083164708FA004608840083137A18831790
:100AF0004808000203198E2D4708FA0046088400B2
:100B000083137A1883178008031D8A2D0030F8009C
:100B1000F900922DC60A0319C70A712D4608F8007C
:100B20004708F9008312080083164908CF004808D7
:100B3000CE00CC08031D9F2DCD080319CA2D4B08EC
:100B4000FA004A08840083137A188317800803196F
:100B5000CA2D4F08FA004E08CE0A0319CF0AD0005A
:100B60007A08D1004B08FA004A08CA0A0319CB0ACE
:100B7000840083137A1883170008D2005008840079
:100B8000831351188317520880004C080319CD03B2
:100B9000CC03992DCC08031DD02DCD080319E02DD1
:100BA0004F08FA004E08CE0A0319CF0A84008313B7
:100BB0007A18831780014C080319CD03CC03CA2D82
:100BC0004808F8004908F900831208004E08243C40
:100BD000031D592E8316C7014E30C6002C30C800A5
:100BE0008312702579088316C2007808C100C701F6
:100BF0004E30C6002A30C80083127025790883164B
:100C0000C4007808C300C108031D092EC2080319D7
:100C1000452EC308031D0F2EC4080319452E420894
:100C20004402031C452E031D192E430841020318DC
:100C3000452E41084302F7004408FA004208031C0D
:100C4000420FFA027708FF3EC5004508143C03181E
:100C50002B2E1430C50001304107C6004208C700E2
:100C60000318C70AC901A030C8004708CB004608CE
:100C7000CA00CD014508CC0083129425A03083160C
:100C80004507840083138001572EC601C701A03099
:100C90008400831346088407470883128D20800050
:100CA00000380319582E8316C70AC60A472E831226
:100CB000682E8316C901A030C800CB014E30CA008F
:100CC000CD011430CC00831294258316B401831215
:100CD0008316BB0183128A150A1270298316CA0172
:100CE000A030C9008312192478088316C200831229
:100CF0000B08F7008B13323003178D008316031394
:100D00004208831203178C0083168C130C15553080
:100D10008D00AA308D008C148C188C2E0C11770845
:100D2000831203138B048316C10142084102031886
:100D3000C42E33304107C300A03041078400831321
:100D40000008C40083120B08F7008B1383164308B6
:100D5000831203178D0083160313440883120317AD
:100D60008C0083168C130C1555308D00AA308D0025
:100D70008C148C18B92E0C117708831203138B0472
:100D800064008316C10A952E83128A150A127329EC
:100D90008316C401C30144084202031CDF2E031D55
:100DA000D52E410843020318DF2E0130CA008312FA
:100DB0008B2164008316C30A0319C40ACB2E831245
:100DC00008000C308316C90083125C23013083169F
:100DD000C500C60083121A23CD3003178D000030E2
:100DE0008F000313962301308316C200F430C10034
:100DF0008312C8268316CE010830CF008312082242
:100E00008316051083120510831685108312851032
:100E100064006300831606148312061C232F8316B6
:100E200086148312861C232F831606158312061D33
:100E3000232F831686158312861D232F83160616ED
:100E40008312061A412F14308316CA0083128B2195
:100E5000831606148312061C402F831686148312F1
:100E6000861C402F831606158312061D402F8316FD
:100E700086158312861D402F831606168312061EC2
:100E8000422F082F6A2279248316BA01B9018312EE
:100E900008008316C2017B1A502F4D30C100522F1B
:100EA0004B30C100243083120C1E542F990083163E
:100EB000410883120C1E5A2F99002C300C1E5E2FF5
:100EC0009900831641082C3AC200CA013730C90084
:100ED0008312192478088316C400C301440843020E
:100EE00003188A2F37304307840083130008C50096
:100EF0007B1E802F4508203C031D802F2C30C50011
:100F0000450883120C1E822F990083164508C206DD
:100F1000C30A6E2F2A3083120C1E8C2F9900831661
:100F20004208C6003730C700C71BA92F0F30F70093
:100F3000460EF7050A3077020318A12F3030F70765
:100F4000A32F4708F707770883120C1EA52F9900D7
:100F500083160F30C6050A3046020318B12F303011
:100F6000B32FC7134708C607460883120C1EB62FB7
:100F700099000D300C1EBA2F99000A300C1EBE2F9E
:080F800099008A150A12152AD6
:101000000B08F7008B1303178D0103134D0803170B
:101010008C0083168C130C1555308D00AA308D0072
:101020008C148C1811280C117708831203138B046D
:101030008316C10183124D088316410203184B2801
:1010400001304107C2003730410784008313000894
:10105000C30083120B08F7008B1383164208831218
:1010600003178D00831603134308831203178C00A4
:1010700083168C130C1555308D00AA308D008C14FE
:101080008C1840280C117708831203138B0464001A
:101090008316C10A1A28831208000C308316C9006F
:1010A0008A1183125C238A1501308316C500C6009D
:1010B0008A1183121A238A15D43003178D00003049
:1010C0008F008A11031396238A15831685108312C5
:1010D000851401308316C200F430C1008A118312D6
:1010E000C8268A1583168510831285100B08F70011
:1010F0008B1303178D018C0183168C130C1555303F
:101100008D00AA308D008C148C1884280C1177085F
:10111000831203138B040B08F7008B133230031771
:101120008D008C0183168C130C1555308D00AA3060
:101130008D008C148C189A280C11770883120313D5
:101140008B04CD01B701CC01AD018316A001BB0119
:101150000C30C9008A1183125C238A158A11792404
:101160008A158A150A12F12A713083168F000F082A
:10117000031787110C3003139900A23098009030A8
:1011800083129800CC01CD01F6017B10FD01FC011A
:101190008316BA01B901FB107B11FE01FB11BB01E3
:1011A0007B1203170908C039890003131F129F120D
:1011B0000030031788008312870188018901831397
:1011C0001F3083050313A701A80103170510FF3083
:1011D00083160313860001309500811305108510D6
:1011E00085108312851432308316CA008A11831247
:1011F0008B218A1583168510831285108A116A2225
:101200008A1564308316CA008A1183128B218A15CD
:101210008A11B32A8A158A11E72A8A153530900077
:101220008E01F6308F003C308E0083160108C039E5
:10123000073881000C1483128B1683168C16C0306D
:1012400083128B0401308316C500C6008A118312F5
:101250001A238A157C3003178D0001308F008A1104
:10126000031396238A1504308316C100FA30CA008E
:101270008A1183128B218A158316C10B36290C30F3
:10128000C9008A1183125C238A158A1179248A1570
:101290000930031785000F30F700031381018130F7
:1012A000840083130008F0390738800064000008C8
:1012B000F739F719F039770480006400FB1D6A29BB
:1012C000FB118316A00803196B29BB0A8A1183122C
:1012D0000D2D8A1583167B1C7B298A118312E62D1E
:1012E0008A158A116E2E8A157B108A1179248A1527
:1012F0008316BA01B9013A080A3C03188B29FF3A50
:10130000031D86293908B83C03188B298A118312DA
:10131000E1268A1583167B1D93298A11831279246D
:101320008A157B11831606168312061ABC298316AA
:10133000861583128619BC2932308316CA008A1199
:1013400083128B218A15831606168312061ABC296E
:101350008316861583128619BC298A11E1268A15FF
:10136000831606168312061EBA2983168615831263
:101370008619BC296400B029831606168312061A42
:10138000E029831686158312861DE0298316BA018B
:10139000B9013230CA008A1183128B218A15831653
:1013A00006168312061AE0291030FB068A117924EA
:1013B0008A15831606168312061AE0296400D929B5
:1013C0008316861483128618962A8316BA01B901E9
:1013D000BD01BC01861483128618072A8316BD0836
:1013E0000319F4298312072A3C08313C0318FA290F
:1013F0008312072A0A30CA008A1183128B218A15A8
:1014000064008316BC0A0319BD0AEA2983128316F5
:10141000BD08031D0F2A3C08313C03185F2A8312C4
:10142000CD080319262A8A11492F8A15831685109B
:10143000831285148316C2016430C1008A1183129D
:10144000C8268A1583168510831285108316861484
:10145000831286182D2A6400262ACD01B701CC01FB
:10146000AD0100200C308316C9008A1183125C2361
:101470008A1501308316C500C6008A1183121A230B
:101480008A15833003178D0001308F008A110313F2
:1014900096238A1503308316C200E830C1008A11F2
:1014A0008312C8268A150C308316C9008A1183124C
:1014B0005C238A158A1179248A15962A8316861444
:1014C00083128618672A640083165F2A8312CC0869
:1014D0000319962A8316C5012D30C4008A11831280
:1014E00039248A1578088316BE0083124D08133CF0
:1014F000031C912A83163E083F3C031D812A831258
:10150000912A83124D08CD0A373E84008313831637
:101510003E088000373083124D078400831380011A
:101520000020CC01AD018A1179248A158316061595
:1015300083120619C92A14308316CA008A1183122D
:101540008B218A158316061583120619C92A83165C
:10155000BA01B9018312CC080319B52ACC032D3086
:101560004C07840083138001BF2ACD080319BF2ACA
:10157000CD0337304D0784008313800100208A118A
:1015800079248A158316061583120619C92A640060
:10159000C22A83168615831286191A2B83160616FD
:1015A0008312061E1A2B8316BA01B901C001BF01AE
:1015B000861583128619FC2A0A308316CA008A11FE
:1015C00083128B218A1564008316BF0A0319C00A8F
:1015D000C008031DEF2A3F08C83C0318FA2A8312EB
:1015E0004D288316861583128619F82A6400F12A7D
:1015F000FC2A8316D82A83128316C008031D042BE5
:101600003F08053C03181B2BC008031D1B2B3F087C
:10161000C83C031C1B2B8312CD01B701CC01AD01CB
:101620008A1179248A1583168615831286191A2B36
:0C1630006400132B831683125D296300F5
:04400E00C42CFF3F80
:00000001FF
;PIC16F887
;CRC=B692  CREATED="30-Ara-25 08:25"
