:1000000004308A00542C0000FF00030E8301A1007D
:100010000A08A0008A010408A2007708A300780853
:10002000A4007908A5007A08A600831383128C30F7
:100030008400001C1D280C182E2822088400230888
:10004000F7002408F8002508F9002608FA0020081F
:100050008A00210E8300FF0E7F0E09008A110A120A
:100060008C280A108A100A11820728340C340134B3
:1000700006340A108A100A1182070034003445340D
:100080005434493441344E344D345334553452345D
:10009000573444344B3447344F3448345634463460
:1000A00000344C34003450344A34423458344334ED
:1000B00059345A3451340034003435343434003433
:1000C000333400340034003432340034003400342B
:1000D0000034003400340034313436340034003419
:1000E0000034003400340034003437340034003439
:1000F0000034383400343934303420100000D52C2A
:10010000CB2AA0264F2255172E170001CD27441DBC
:10011000A02C412DC92600008E01F6308F003C3006
:100120008E0051087C3C031C9828D00A0319D10A80
:100130008316061483126710061C6714671CAE280A
:10014000D101D001CE0A0319CF0A831605108312FC
:1001500005148316851083128514DF288316051075
:10016000831205108316851083128510521CDF2818
:10017000D101D001CF08031DC1284E08023C03184D
:10018000DD28CF08031DD0284E081D3C031CD028B5
:100190004C08CC0A2D3E840083132E308000D728D3
:1001A0004C08CC0A2D3E840083132D3080002D3066
:1001B0004C07840083138001D214CF01CE0152106A
:1001C000671852140C108A110A121D28CD37F23903
:1001D000202A6536673961330001CD27441DA02CE4
:1001E000412DC9260001C627D226412AA020D424A9
:1001F000CC24D927D2100001CD27441DA02C412D9D
:10020000C92600005D3084008313000803191529F6
:100210000230F800F701F70B0B29F80B0A29973089
:10022000F700F70B1129800B0829080064181A2918
:1002300008121B290816831608128312E4182229B3
:1002400088122329881683168812831264192A2992
:1002500008132B290817831608138312E41932296F
:100260008813332988178316881300008312881592
:10027000831688113B293C29831288118316881123
:1002800083120800E5018316081600308312081A4D
:100290000130E5048316881600308312881A013075
:1002A000F7000310F70D7708E504831608170030F0
:1002B0008312081B0130F700F70DF70DFC30F7052E
:1002C0007708E5048316881700308312881B0130F5
:1002D000F700F70DF70DF70DF830F7057708E5048F
:1002E0006508F80008008316881188100811831229
:1002F0008810831688100816881608178817831226
:1003000008158316081100008312881583168811BA
:100310000000831242217808E400881183168811B6
:1003200000008312881583168811962983124221B2
:100330007808E300881183168811081288120813C0
:1003400088138312640EF700F030F7057708630412
:10035000F8007808E300E31FAF2983167B29E10842
:10036000031DB4298810B52988148316881000004D
:100370008312081183160811000083128811831656
:1003800088118312620EE3000F30E3056308E40076
:10039000162162080F39E300E400162108008316D5
:1003A0000812881208138813881188100811831204
:1003B000881083168810831208118316081183127F
:1003C0008811831688110F308312DD00022101305D
:1003D000D5005508033C031CF5290330E400162121
:1003E0000530DD000221D50AE9290230E40016219A
:1003F0000530DD000221D5015508033C031C092A04
:1004000055083120D600E1015608E2007321D50AD3
:10041000FC29080003178D0183168C130C1483121A
:100420000C080313CD004D08143C031CCD01D5016D
:100430004D08550203182F2A3730550784008313BF
:1004400001305507D800580803178D0083168C1308
:100450000C1483120C0880000313D50A182A3730B5
:100460004D078400831380018A110A129B2C5908BE
:10047000013A0319452A033A0319472A013A031995
:100480004A2A073A03194D2A502ADA01512A4030E4
:10049000DA00512A1430DA00512A5430DA00512A95
:1004A000DA0101305802DA075A088038DB00E1012E
:1004B0005B08E200732108005E0B5F2A622A40306D
:1004C000DF00632ADF0101305D02DF075F0880384B
:1004D000E000E1016008E200732108005C08073ACF
:1004E00003197C2A0B3A0319812A063A0319892A2F
:1004F000023A03198F2A942A0130DD00DE005C22C3
:10050000992AE1010130E20073210230DD0002216D
:10051000992A0130DD000230DE005C22992AE101D7
:100520001030E2007321992A0130E1005C08E200FA
:10053000732108000B08D8008B13831603178C1740
:100540000C140000000083120C087F390319E12A03
:100550000313D90003170D080313DA0003170F085C
:100560000313DB005908DC006E225A0803178D00C4
:1005700003135B0803178F0083168C170C140000FD
:10058000000083120C0D0E0D7F390319E12A0313AD
:10059000D90003170D080313DA0003170F0803131C
:1005A000DB005908DC006E225A0803178D00031384
:1005B0005B0803178F008D0A03198F0A03139D2A06
:1005C00003170313D81B8B17080080080319FA2A96
:1005D000D9010408D8005910831B59140008DC0005
:1005E0006E2258088400831359188317840A03194C
:1005F000850AE52A08005E08E0005D08DF00600863
:10060000FA005F08840083137A188317800803199F
:100610000D2BDF0A0319E00AFF2A5D085F02F700CD
:100620006008FA005E08031C5E0FFA027708F80003
:1006300008000130DC005908DE005808DD00FB220C
:100640007808DB00DB08031D282B2030F8004E2B38
:10065000DA015B085A020318422B0310DC0D5A081A
:100660005807840083135918831700082D3C031979
:100670005C145C083F3C0318402B3F30F8004E2BC5
:10068000DA0A292B5C083920003A031D4A2B3F3037
:10069000F8004E2B5C083920F800F8000800013003
:1006A000D8000230D9003722373084008313E52286
:1006B000CC080319682BD9012D30D80019237808EC
:1006C000D7005708DC006E223C30DC006E226F2B16
:1006D0007D3003178D0000308F0003139A22DE0156
:1006E0003730DD00FB227808D800CC0803197B2BBB
:1006F000FA0102307D2BFA0100305807D600560867
:10070000D5005508133C031C8A2B2030DC006E22D8
:10071000D50A812B0130D8000330D90037222D3083
:1007200084008313E522DE012D30DD00FB227808F2
:10073000D6005608D5005508133C031CA42B2030C6
:10074000DC006E22D50A9B2B08000C30DC006E22E8
:100750000130D800D90037227F3003178D000030D8
:100760008F0003139A220230D500FA30DD000221F7
:10077000D50BB52BE1010830E2007321831605107B
:100780008312051083168510831285100930031714
:1007900085000F30F700031381018130840083133B
:1007A0000008F0390738800064000008F739F719AD
:1007B000F039770480006300831606148312061C48
:1007C000F42B831686148312861CF42B83160615CD
:1007D0008312061DF42B831686158312861DF42BB7
:1007E000831606168312061EF62BC62B0930031736
:1007F0008500831603130108F03981006400831219
:10080000CF210130D800D9003722863003178D0060
:1008100000308F0003139A224F23D101D0018A1197
:100820000A12D52C0B08F7008B1303178D01031345
:100830004D0803178C0083168C130C1555308D0052
:10084000AA308D008C148C18232C0C11770883127D
:1008500003138B04D5014D0855020318532C0130A6
:100860005507D60037305507840083130008D7009A
:100870000B08F7008B13560803178D000313570856
:1008800003178C0083168C130C1555308D00AA307D
:100890008D008C148C184A2C0C11770883120313CA
:1008A0008B04D50A2B2C0800713083168F000F089B
:1008B0008312CC01CD01CF01CE01D101D001521064
:1008C000D210831603170908C039890003131F12B9
:1008D0009F12003003178800831287018801890165
:1008E00083131F3083050313A701A80109300317E1
:1008F00085000F30F70003138101813084008313DA
:100900000008F0390738800064000008F739F7194B
:10091000F03977048000FF3083168600013095009F
:1009200081130510851064008312CF2164006430A8
:10093000DD0002210A2A353090008E01F6308F004A
:100940003C308E0083160C14C03083128B040130AF
:10095000D800D9003722E63003178D0000308F0011
:1009600003139A2264000430D500FA30DD0002211E
:10097000D50BB52C0C30DC006E220130D800D9002C
:100980003722ED3003178D0000308F0003139A22B9
:100990004F23640051080A3C0318D52CFF3A031D6D
:1009A000D42C5008B83C031CA52BD21CD92C4F23A7
:1009B000D2108316861483128618082DD101D00117
:1009C0008316861483128618E72C6400E02CCC086A
:1009D0000319082DD9012D30D80019237808D30028
:1009E0004D08133C031C052D53083F3C0319052DEE
:1009F0004D08CD0A373E84008313530880003730FA
:100A00004D078400831380011224CC01AD014F23D4
:100A100083160615831206192B2DD101D0018316DA
:100A2000061583120619162D64000F2DCC08031924
:100A3000202DCC032D304C078400831380012A2DF8
:100A4000CD0803192A2DCD0337304D0784008313B9
:100A5000800112244F2383168615831286193E2D9A
:100A6000D101D0018316861583128619392D6400B1
:100A7000322DCD01B701CC01AD014F2383160616EF
:100A80008312061AAF2DD101D0010C30DC006E228A
:100A90000130D800D9003722F33003178D00003021
:100AA0008F0003139A228316851083128514C83091
:100AB000DD00022183168510831285108316061629
:100AC0008312061A652D64005E2DD40154081D3C66
:100AD000031C832D0B08F7008B13540803178D009C
:100AE0008C0183168C130C1555308D00AA308D00A7
:100AF0008C148C18792D0C117708831203138B0436
:100B00006400D40A662DCD01B701CC01AD010C30D3
:100B1000DC006E220130D800D9003722FC300317E8
:100B20008D0000308F0003139A224F238316851007
:100B3000831285143230DD00022183168510831262
:100B400085103230DD000221831685108312851452
:100B50003230DD0002218316851083128510C92CE6
:020B6000630030
:04400E00DC2CFF3F68
:00000001FF
;PIC16F887
;CRC=615C  CREATED="19-Ara-25 16:20"
