:1000000008308A0000280000FF00030E8301A100D1
:100010000A08A0008A010408A2007708A300780853
:10002000A4007908A5007A08A600831383128C30F7
:100030008400801E1D288C1A38288C308400001CF7
:1000400023280C183B288B1E27280B193E28220832
:1000500084002308F7002408F8002508F900260882
:10006000FA0020088A00210E8300FF0E7F0E09008F
:100070008A110A12CA288A110A1219298A110A1227
:1000800083290A108A100A11820728340C3401349B
:1000900006340A108A100A118207003400344534ED
:1000A0005434493441344E344D345334553452343D
:1000B000573444344B3447344F3448345634463440
:1000C00000344C34003450344A34423458344334CD
:1000D00059345A3451340034003435343434003413
:1000E000333400340034003432340034003400340B
:1000F00000340034003400343134363400340034F9
:100100000034003400340034003437340034003418
:1001100000343834003439343034201020102010AA
:10012000201020102010201020102010201000007F
:10013000CD27441DA026C5294125201020102010C0
:10014000201020100001CD27441DA025CF26552AC0
:10015000201020102010201020100001201000017D
:10016000201020102010201020102010201020100F
:10017000201020100000D52CCB2AA0264F22551786
:100180002E170000C822D0294910D324CC24CE2415
:10019000D92752008C1E15298C1ECC281A088316CC
:1001A000D10051085C3C0319DD2851080A3C0319B1
:1001B000DD2851080D3C031D07298312E7080319A8
:1001C00005294E3067078400831380018316D5010B
:1001D0004E30D400D301A030D200540884008313E1
:1001E000551883170008D60052088400831353184B
:1001F000831756088000800803190129D20AD40AFF
:10020000ED2883126814E701EE0115298316831285
:100210006708133C031C15296708E70A4E3E840053
:10022000831383165108800083128C128A110A12DC
:1002300027288E01F6308F003C308E006C087C3C05
:10024000031C2529EB0A0319EC0A83160614511026
:10025000831206182E298316511483128316511CFB
:1002600041298312EC01EB01E90A0319EA0A83161A
:1002700005108312051483168510831285147729BF
:1002800083160510831205108316851083128510BE
:10029000E81C7729EC01EB01EA08031D53296908E2
:1002A000023C03187529EA08031D622969081D3CF0
:1002B000031C62294C08CC0A2D3E840083132E3087
:1002C000800069294C08CC0A2D3E840083132D3010
:1002D00080004C08093C03186F290930CC002D30F0
:1002E0004C078400831380016815EA01E901E810D6
:1002F0008316511C7E298312E814831683120C1076
:100300008A110A122728ED0A6D083C3C03188A2935
:10031000ED01E8150B118A110A122728CD37F239A1
:10032000202A6536673961330001D622D224A02302
:100330004F27C422D2244C224900C73084008313A3
:1003400000080319B0290230F800F701F70BA629BD
:10035000F80BA5299730F700F70BAC29800BA329E0
:10036000080083164E18B82983120812BA2983167A
:100370008312081683160812CE18C2298312881217
:10038000C429831683128816831688124E19CC2925
:1003900083120813CE2983168312081783160813B5
:1003A000CE19D62983128813D82983168312881769
:1003B0008316881300008312881583168811E0299C
:1003C000E12983128811831688118312080083168D
:1003D000CF01081600308312081A01308316CF04AB
:1003E000881600308312881A0130F7000310F70DC9
:1003F00077088316CF04081700308312081B0130DA
:10040000F700F70DF70DFC30F70577088316CF04DA
:10041000881700308312881B0130F700F70DF70DA5
:10042000F70DF830F70577088316CF044F08F8006A
:10043000831208008316881188100811831288100F
:10044000831688100816881608178817831208154F
:100450008316081100008312881583168811000086
:100460008312E72178088316CE0083128811831641
:100470008811000083128815831688113F2A831281
:10048000E72178088316CD0083128811831688111E
:1004900008128812081388134E0EF700F030F70583
:1004A00077084D04F8007808CD00CD1B222ACB0830
:1004B000031D5E2A83128810602A83168312881413
:1004C000831688100000831208118316081100009B
:1004D00083128811831688114C0ECD000F30CD0584
:1004E0004D08CE008312B12183164C080F39CD0080
:1004F000CE008312B1210800831608128812081357
:1005000088138811881008118312881083168810A8
:10051000831208118316081183128811831688111B
:100520000F30C70083129D2101308316BE003E08A4
:10053000033C031CA72A0330CE008312B1210530EF
:100540008316C70083129D218316BE0A972A0230A4
:10055000CE008312B12105308316C70083129D217E
:100560008316BE013E08033C031CC32A3E088312C7
:1005700041208316BF00CB013F08CC0083121A2212
:100580008316BE0AB22A8312080003178D01831650
:100590008C130C1483120C080313CD004D08143C6B
:1005A000031CCD018316BE0183124D0883163E0243
:1005B0000318F02A37303E078400831301303E07CA
:1005C000C1004108831203178D0083168C130C148D
:1005D00083120C088000640083160313BE0AD42A19
:1005E000373083124D078400831380018A150A1265
:1005F0005628323003178D0083168C130C14831287
:100600000C0883160313BF003F08143C031CBF01F2
:10061000BE013F083E020318232BA0303E07840092
:10062000831333303E07C2004208831203178D0044
:1006300083168C130C1483120C088000640083163C
:100640000313BE0A092BA0303F07840083138001E7
:1006500083128A150A12592883164308013A831215
:1006600003193C2B033A03193F2B013A0319432B7F
:10067000073A0319472B4C2B8316C4014E2B4030ED
:100680008316C4004E2B14308316C4004E2B5430F6
:100690008316C4004E2B83128316C401013042021C
:1006A000C40744088038C500CB014508CC0083123C
:1006B0001A2208008316480B5E2B612B4030C900BC
:1006C000622BC90101304702C90749088038CA00B6
:1006D000CB014A08CC0083121A2208008316460870
:1006E000073A831203197E2B0B3A0319852B063A1E
:1006F0000319912B023A0319992BA02B0130831671
:10070000C700C80083125A23A72B8316CB010130E0
:10071000CC0083121A2202308316C70083129D2157
:10072000A72B01308316C7000230C80083125A235A
:10073000A72B8316CB011030CC0083121A22A72BD3
:1007400001308316CB004608CC0083121A22080021
:100750000B088316C20083128B13831603178C17A2
:100760000C140000000083120C087F390319052CBB
:1007700083160313C300831203170D088316031394
:10078000C400831203170F0883160313C500430820
:10079000C60083126E2383164408831203178D004C
:1007A000831603134508831203178F0083168C17D3
:1007B0000C140000000083120C0D0E0D7F3903197C
:1007C000052C83160313C300831203170D08831629
:1007D0000313C400831203170F0883160313C50005
:1007E0004308C60083126E2383164408831203173E
:1007F0008D00831603134508831203178F008D0A9B
:1008000003198F0A0313AD2B031783160313C21F9B
:100810000C2C83128B17831683120800800803198F
:100820002A2C8316C2010408C1004210831B421403
:100830000008C60083126E238316410884008313C8
:1008400042188317840A031D282C8312850A8316F5
:1008500083120E2C080083164708C9004608C800FA
:100860004908FA004808840083137A18831780081F
:1008700003193E2CC80A0319C90A302C460848023D
:10088000F7004908FA004708031C470FFA027708E7
:10089000F8008312080001308316C5004208C70023
:1008A0004108C60083122B2478088316C400C408AC
:1008B000031D5D2C2030F800892CC301440843023D
:1008C0000318772C0310C50D4308410784008313D8
:1008D0004218831700082D3C0319451445083F3C76
:1008E0000318752C3F30F800892CC30A5E2C45088C
:1008F00083124920003A031D822C3F30F8008316F2
:10090000892C83128316450883124920F800F800C9
:1009100083168312080001308316C200C3008312BD
:100920002C23681A9B2C983003178D0000308F0001
:100930000313A823A22CA33003178D0000308F00CF
:100940000313A82301308316C2000230C3008312B0
:100950002C233730840083130E24CC080319C32CB6
:100960008316C2012D30C10083124B2478088316F0
:10097000C0004008C60083126E233C308316C600B8
:1009800083126E23CA2CAE3003178D0000308F0007
:100990000313A8238316C7013730C60083122B2404
:1009A00078088316C1008312CC080319DA2CFA01E7
:1009B0000230DC2CFA01003083164107BF003F08EB
:1009C000BE003E08133C031CEC2C2030C6008312F2
:1009D0006E238316BE0AE12C0130C2000330C3002F
:1009E00083122C232D30840083130E248316C70119
:1009F0002D30C60083122B2478088316BF003F08D1
:100A0000BE003E08133C031C0C2D2030C600831290
:100A10006E238316BE0A012DA008031D1D2D013073
:100A2000C2000430C30083122C23B03003178D00A2
:100A300000308F000313A8238316831208000430AC
:100A40008316C100A008031D342D0130C2000430FC
:100A5000C30083122C238D3003178D0000308F00CC
:100A60000313A823812D8316C701A030C60083126B
:100A70002B2478088316BE000130C2000430C30066
:100A800083122C238316BF013F08133C031C802DC7
:100A90003F0883126E078316C20041083E07C30059
:100AA0004208C4004308C5004508F8014402031881
:100AB0005C2D4408F700682DF7010830C600C40D0E
:100AC000F70D450877020318F700F80DC60B5F2DE8
:100AD0007708C0003E0840020318792DA030400777
:100AE000840083130008C200C60083126E237D2D8C
:100AF00083162030C60083126E238316BF0A442D4E
:100B000083128A150A12B5288316C701A030C600C1
:100B100083122B2478088316BF0083120B08F7007A
:100B20008B13323003178D00831603133F08831293
:100B300003178C0083168C130C1555308D00AA30CA
:100B40008D008C148C18A22D0C11770883120313BE
:100B50008B048316BE013F083E020318DA2D3330A2
:100B60003E07C000A0303E07840083130008C10088
:100B700083120B08F7008B138316400883120317A8
:100B80008D00831603134108831203178C0083160C
:100B90008C130C1555308D00AA308D008C148C18D8
:100BA000CF2D0C117708831203138B046400831676
:100BB000BE0AAB2D83128A150A12BC288316C10106
:100BC000C00141083F02031CF52D031DEB2D3E081B
:100BD00040020318F52D0130C70083129D216400E7
:100BE0008316C00A0319C10AE12D831208000C30D4
:100BF0008316C60083126E2301308316C200C30021
:100C000083122C23BB3003178D0000308F00031399
:100C1000A82301308316BF00F430BE008312DE2506
:100C20008316CB010830CC0083121A2283160510DC
:100C300083120510831685108312851064006300EB
:100C4000831606148312061C392E8316861483120B
:100C5000861C392E831606158312061D392E83161F
:100C600086158312861D392E831606168312061AE0
:100C7000572E14308316C70083129D218316061445
:100C80008312061C562E831686148312861C562E3B
:100C9000831606158312061D562E8316861583129B
:100CA000861D562E831606168312061E582E1E2EDD
:100CB0007C228B24EC01EB0108008316BF01831218
:100CC000681A672E4D308316BE006A2E83124B3091
:100CD0008316BE00243083120C1E6C2E99008316DE
:100CE0003E0883120C1E722E99002C300C1E762E9C
:100CF000990083163E082C3ABF00C7013730C60062
:100D000083122B2478088316C100C00141084002D9
:100D10000318A82E37304007840083130008C20050
:100D20008312681E9D2E83164208203C03199A2EBA
:100D300083129D2E2C30C200831283164208831228
:100D40000C1EA02E990083164208BF06C00A862EEC
:100D50002C3083120C1EAA2E990083163F08C30064
:100D60003730C400C41BC72E0F30F700430EF70501
:100D70000A3077020318BF2E3030F707C12E44081F
:100D8000F707770883120C1EC32E990083160F30C5
:100D9000C3050A3043020318CF2E3030D12EC413BE
:100DA0004408C307430883120C1ED42E99000D304B
:100DB0000C1ED82E99000A300C1EDC2E99008A15C4
:100DC0000A125A290B08F7008B1303178D0103131E
:100DD0004D0803178C0083168C130C1555308D00AD
:100DE000AA308D008C148C18F32E0C117708831206
:100DF00003138B048316BE0183124D0883163E0233
:100E000003182D2F01303E07BF0037303E07840006
:100E100083130008C00083120B08F7008B1383169E
:100E20003F08831203178D008316031340088312B3
:100E300003178C0083168C130C1555308D00AA30C7
:100E40008D008C148C18222F0C1177088312031339
:100E50008B0464008316BE0AFC2E831208000C303B
:100E60008316C60083126E2301308316C200C300AE
:100E700083122C23C23003178D0000308F00031320
:100E8000A823831685108312851401308316BF00B2
:100E9000F430BE008312DE25831685108312851080
:100EA0000B08F7008B1303178D018C0183168C132D
:100EB0000C1555308D00AA308D008C148C185E2FC7
:100EC0000C117708831203138B040B08F7008B13A4
:100ED000323003178D008C0183168C130C1555309E
:100EE0008D00AA308D008C148C18742F0C1177088B
:100EF000831203138B04CD01B701CC01AD0183161E
:100F0000A0018312EE010C308316C60083126E23FB
:080F10008B248A150A123B2A0A
:10100000713083168F000F08031787110C300313FC
:101010009900A2309800903083129800CC01CD0145
:10102000E7016810EA01E901EC01EB01E810681141
:10103000ED01E811EE016812831603170908C039A3
:10104000890003131F129F120030031788008312B8
:1010500087018801890183131F3083050313A701CA
:10106000A80103170510FF30831603138600013013
:101070009500811305108510851083128514323078
:101080008316C7008A1183129D218A158316851045
:10109000831285108A117C228A1564308316C7005A
:1010A0008A1183129D218A158A11C52A8A158A11EF
:1010B000F92A8A15353090008E01F6308F003C30C9
:1010C0008E0083160108C039073881000C14831282
:1010D0008B1683168C16C03083128B040130831656
:1010E000C200C3008A1183122C238A158E30031785
:1010F0008D0001308F008A110313A8238A15043054
:101100008316BE00FA30C7008A1183129D218A150A
:101110008316BE0B82280C30C6008A1183126E2300
:101120008A158A118B248A150930031785000F3020
:10113000F700031381018130840083130008F03924
:101140000738800064000008F739F719F039770490
:1011500080006400E81DB628E8118316A008031972
:10116000B7288312EE0A8A111F2D8A15831683125F
:10117000681CC3288A11842D8A1568108A118B2453
:101180008A15EC01EB016C080A3C0318D128FF3AE0
:10119000031DCE286B08B83C0318D1288A11F72507
:1011A0008A15681DD7288A118B248A156811831621
:1011B00006168312061A01298316861583128619CC
:1011C000012932308316C7008A1183129D218A15A6
:1011D000831606168312061A0129831686158312B2
:1011E000861901298A11F7258A1583160616831296
:1011F000061EFF28831686158312861901296400AE
:10120000F528831606168312061A252983168615D5
:101210008312861D2529EC01EB0132308316C700AD
:101220008A1183129D218A15831606168312061AC7
:1012300025291030E8068A118B248A158316061694
:101240008312061A252964001E2983168614831228
:101250008618DF29EC01EB018316BA01B901861467
:10126000831286184C298316BA0803193929831268
:101270004C293908313C03183F2983124C290A3084
:10128000C7008A1183129D218A1564008316B90A4A
:101290000319BA0A2F2983128316BA08031D542989
:1012A0003908313C0318A6298312CD0803196B298C
:1012B0008A115D2E8A158316851083128514831674
:1012C000BF016430BE008A118312DE258A158316A1
:1012D000851083128510831686148312861872294E
:1012E00064006B29CD01B701CC01AD018A11E22662
:1012F0008A150C308316C6008A1183126E238A1554
:1013000001308316C200C3008A1183122C238A1570
:10131000953003178D0001308F008A110313A82325
:101320008A1503308316BF00E830BE008A1183128D
:10133000DE258A150C308316C6008A1183126E23AF
:101340008A158A118B248A15DF2983168614831245
:101350008618AE2964008316A6298312CC080319C7
:10136000DF298316C2012D30C1008A1183124B245C
:101370008A1578088316BB0083124D08133C031CA2
:10138000DA2983163B083F3C031DC8298312DA295A
:1013900083124D08CD0A373E8400831383163B0821
:1013A0008000373083124D078400831380018A1137
:1013B000E2268A15CC01AD018A118B248A15831689
:1013C000061583120619122A14308316C7008A11D3
:1013D00083129D218A158316061583120619122A77
:1013E000EC01EB01CC080319FC29CC032D304C0790
:1013F000840083138001082ACD080319082ACD032D
:1014000037304D078400831380018A11E2268A1544
:101410008A118B248A158316061583120619122A3F
:1014200064000B2A8316861583128619652A831693
:1014300006168312061E652AEC01EB018316BD0118
:10144000BC01861583128619472A0A308316C70005
:101450008A1183129D218A1564008316BC0A031920
:10146000BD0ABD08031D382A3C08C83C0318452A9C
:101470008A1183122F2F8A158316861583128619D7
:10148000432A64003C2A472A8316212A83128316A2
:10149000BD08031D4F2A3C08053C0318662ABD08F9
:1014A000031D662A3C08C83C031C662A8312CD0132
:1014B000B701CC01AD018A118B248A1583168615DC
:1014C00083128619652A64005E2A83168312A9286E
:0214D0006300B7
:04400E00C42CFF3F80
:00000001FF
;PIC16F887
;CRC=E908  CREATED="20-Ara-25 10:42"
