:1000000004308A00342C0000FF00030E8301A1009D
:100010000A08A0008A010408A2007708A300780853
:10002000A4007908A5007A08A600831383128C30F7
:100030008400001C1D280C182E2822088400230888
:10004000F7002408F8002508F9002608FA0020081F
:100050008A00210E8300FF0E7F0E09008A110A120A
:1000600012290A108A100A11820728340C3401342C
:1000700006340A108A100A1182072E342D340034F7
:100080002D342E342E342E3400342D342E342D3491
:100090002E3400342D342E342E3400342E340034DB
:1000A0002E342E342D342E3400342D342D342E3471
:1000B00000342E342E342E342E3400342E342E348C
:1000C00000342E342D342D342D3400342D342E3480
:1000D0002D3400342E342D342E342E3400342D346F
:1000E0002D3400342D342E3400342D342D342D3461
:1000F00000342E342D342D342E3400342D342D3450
:100100002E342D3400342E342D342E3400342E343D
:100110002E342E3400342D3400342E342E342D342D
:1001200000342E342E342E342D3400342E342D341D
:100130002D3400342D342E342E342D3400342D340F
:100140002E342D342D3400342D342D342E342E34D1
:1001500000342D342D342D342D342D3400342E34F0
:100160002D342D342D342D3400342E342E342D34B2
:100170002D342D3400342E342E342E342D342D34A1
:1001800000342E342E342E342E342D3400342E34BC
:100190002E342E342E342E3400342D342E342E347E
:1001A0002E342E3400342D342D342E342E342E346F
:1001B00000342D342D342D342E342E3400342D348F
:1001C0002D342D342D342E3400340A108A100A11A7
:1001D000EC3E03188A0A82004134423443344434EA
:1001E000453446344734483449344A344B344C342B
:1001F0004D344E344F3450345134523453345434DB
:10020000553456345734583459345A3430343134E0
:100210003234333434343534363437343834393492
:10022000201000008E01F6308F003C308E008316C7
:10023000061483126010061C6014601C2B29CA0A65
:100240000319CB0A83160510831205148316851033
:10025000831285145E2983160510831205108316F8
:100260008510831285104C1C5E29CB08031D3C2988
:100270004A08023C03185C29CB08031D4B294A0895
:10028000133C031C4B294808C80A293E84008313E9
:100290002E30800052294808C80A293E8400831362
:1002A0002D308000293048078400831380014808DE
:1002B000083C031CC801CC14CB01CA014C106018C7
:1002C0004C140C108A110A121D28CD37F239202A3D
:1002D000653667396133203B34005322A02541291C
:1002E000541DA02CCF25201020102000CD27441D08
:1002F000A0264127D5224C10C724D22453005630C3
:10030000840083130008031992290230F800F701D2
:10031000F70B8829F80B87299730F700F70B8E2900
:10032000800B852908005D1897290812982908165E
:10033000831608128312DD189F298812A0298816B7
:100340008316881283125D19A7290813A829081794
:10035000831608138312DD19AF298813B029881773
:100360008316881300008312881583168811B82914
:10037000B929831288118316881183120800DE01BF
:100380008316081600308312081A0130DE04831623
:10039000881600308312881A0130F7000310F70D19
:1003A0007708DE048316081700308312081B01301B
:1003B000F700F70DF70DFC30F7057708DE0483161C
:1003C000881700308312881B0130F700F70DF70DF6
:1003D000F70DF830F7057708DE045E08F80008002E
:1003E00083168811881008118312881083168810CC
:1003F000081688160817881783120815831608111F
:100400000000831288158316881100008312BF2113
:100410007808DD0088118316881100008312881582
:1004200083168811132A8312BF217808DC008811F3
:1004300083168811081288120813881383125D0E20
:10044000F700F030F70577085C04F8007808DC0066
:10045000DC1F2C2A8316F829DA08031D312A88109C
:10046000322A88148316881000008312081183161C
:1004700008110000831288118316881183125B0E05
:10048000DC000F30DC055C08DD0093215B080F39D0
:10049000DC00DD009321080083160812881208137F
:1004A0008813881188100811831288108316881009
:1004B000831208118316081183128811831688117C
:1004C0000F308312D6007F210130CE004E08033C4E
:1004D000031C722A0330DD0093210530D6007F21F2
:1004E000CE0A662A0230DD0093210530D6007F2136
:1004F000CE014E08033C031C862A4E083120CF0053
:10050000DA014F08DB00F021CE0A792A8A110A129B
:10051000602C5208013A0319972A033A0319992AC1
:10052000013A03199C2A073A03199F2AA22AD301E8
:10053000A32A4030D300A32A1430D300A32A543076
:10054000D300A32AD30101305102D30753088038C6
:10055000D400DA015408DB00F0210800570BB12A5F
:10056000B42A4030D800B52AD80101305602D80745
:1005700058088038D900DA015908DB00F02108005A
:100580005508073A0319CE2A0B3A0319D32A063A1B
:100590000319DB2A023A0319E12AE62A0130D600C0
:1005A000D700AE22EB2ADA010130DB00F021023065
:1005B000D6007F21EB2A0130D6000230D700AE22D0
:1005C000EB2ADA011030DB00F021EB2A0130DA00EF
:1005D0005508DB00F02108000B08D1008B138316AF
:1005E00003178C170C140000000083120C087F39CD
:1005F0000319332B0313D20003170D080313D30081
:1006000003170F080313D4005208D500C022530863
:1006100003178D000313540803178F0083168C17DC
:100620000C140000000083120C0D0E0D7F3903190D
:10063000332B0313D20003170D080313D300031742
:100640000F080313D4005208D500C0225308031723
:100650008D000313540803178F008D0A03198F0AA6
:100660000313EF2A03170313D11B8B17080080080D
:1006700003194C2BD2010408D1005210831B5214D1
:100680000008D500C0225108840083135218831734
:10069000840A0319850A372B08005508D700540827
:1006A000D6005708FA005608840083137A18831777
:1006B000800803195F2BD60A0319D70A512B540857
:1006C0005602F7005708FA005508031C550FFA02A6
:1006D0007708F80008005208D5005108D4004D23CF
:1006E000F808031D762B2030F800DD2BD3015308CA
:1006F000233C031CDB2B0310530DD400540A392078
:10070000FA0054083920D4007A08D5005208D700DE
:100710005108D6005508D9005408D8005708FA00E7
:100720005608840083137A1883170008DA005908E2
:10073000FA005808840083137A18831700085A02B5
:10074000031DB92B5708FA005608840083137A1842
:1007500083178008031DAF2B0030F800D12B5708FA
:10076000FA005608D60A0319D70AD80A0319D90A73
:100770008E2B5708FA0056088400831357188317E6
:100780000008DA005908FA00580884008313591841
:10079000831700085A020318CF2BFF30D02B0130EB
:1007A000F800F808031DD92B5308E520F800F800DD
:1007B000DD2BD30A772B3F30F80008000130D10041
:1007C0000230D20089223330840083133723C808D3
:1007D0000319F72BD2012930D1006B237808D00000
:1007E0005008D500C0223C30D500C022FE2B10306E
:1007F00003178D0001308F000313EC22D501333035
:10080000D4004D237808D100C80803190A2CFA0136
:1008100002300C2CFA0100305107CF004F08CE00F7
:100820004E08133C031C192C2030D500C022CE0AE0
:10083000102C0130D1000330D200892229308400ED
:1008400083133723D5012930D4004D237808CF00F6
:100850004F08CE004E08133C031C332C2030D5002B
:10086000C022CE0A2A2C0800713083168F000F0890
:100870008312C801C901CB01CA014C10CC108316E8
:1008800003170908C039890003131F129F12003093
:1008900003178800831287018801890183131F30A1
:1008A00083050313A701A801FF30831686000130DA
:1008B00095008113051085100510831205104C2A30
:1008C0006430D6007F21353090008E01F6308F00E5
:1008D0003C308E0083160C14C03083128B04013020
:1008E000D100D2008922653003178D0001308F00BE
:1008F0000313EC220130D1000230D20089226D3086
:1009000003178D0001308F000313EC220430CE005A
:10091000FA30D6007F21CE0B882C0C30D500C022B7
:100920000130D100D2008922763003178D000130CA
:100930008F000313EC22DE23CC1CA02CDE23CC1072
:100940008316861483128618E62C83168614831267
:10095000861CA52CC8080319D52CD2012930D1003A
:100960006B237808CD004908133C031CC72C4D08A5
:100970003F3C0319C72C4908C90A333E840083133E
:100980004D08800033304907840083138001C8017B
:10099000A90183168510831285143230D6007F2179
:1009A0008316851083128510E52C4908133C031C1F
:1009B000E52C4908C90A333E8400831320308000A7
:1009C00033304907840083138001DE238316061524
:1009D00083120619042D831606158312061DEB2CAF
:1009E000C8080319FA2CC803293048078400831368
:1009F0008001032DC9080319032DC90333304907AA
:100A0000840083138001DE238316861583128619E2
:100A10001E2D831686158312861D092DC901B3016B
:100A2000C801A9018316851083128514C830D60029
:100A30007F218316851083128510DE239C2C630092
:04400E00D42CFF3F70
:00000001FF
;PIC16F887
;CRC=E0F7  CREATED="18-Ara-25 08:50"
